:020000040800F2
:1000000000000320D9680008556800085D680008F2
:10001000656800086D680008756800080000000049
:100020000000000000000000000000007D680008E3
:100030008B6800080000000099680008A7680008A5
:100040002969000829690008296900082969000848
:10005000296900082969000829690008515C00081D
:10006000296900083D5D0008296900082969000820
:100070002969000829690008296900082969000818
:100080002969000829690008296900082969000808
:10009000296900082969000829690008695D0008C4
:1000A00029690008695B00082969000829690008B6
:1000B00029690008296900082969000829690008D8
:1000C00029690008296900082969000829690008C8
:1000D00029690008296900082969000829690008B8
:1000E00029690008296900082969000829690008A8
:1000F0002969000829690008296900082969000898
:100100002969000829690008296900082969000887
:100110002969000829690008296900082969000877
:100120002969000829690008296900082969000867
:100130002969000829690008296900082969000857
:100140002969000829690008296900082969000847
:100150002969000829690008296900082969000837
:100160002969000829690008296900082969000827
:100170002969000829690008296900082969000817
:100180002969000829690008296900082969000807
:1001900029690008296900082969000829690008F7
:0C01A00029690008296900082969000885
:1001B00010B5054C237833B9044B13B10448AFF3A1
:1001C00000800123237010BD0C00002000000000FF
:1001D0001C75000808B5034B1BB103490348AFF376
:1001E000008008BD00000000100000201C75000801
:1001F00070B54FF0FF0C4CF4E06C1CEA11541DBFBD
:100200001CEA135594EA0C0F95EA0C0F00F0DEF887
:100210002C4481EA030621EA4C5123EA4C5350EA6C
:10022000013518BF52EA033541F4801143F48013BD
:1002300038D0A0FB02CE4FF00005E1FB02E506F04E
:100240000042E0FB03E54FF00006E1FB03569CF0A3
:10025000000F18BF4EF0010EA4F1FF04B6F5007FA9
:1002600064F5407404D25FEA4E0E6D4146EB06061B
:1002700042EAC62141EA55514FEAC52040EA5E50A4
:100280004FEACE2EB4F1FD0C88BFBCF5E06F1ED84E
:10029000BEF1004F08BF5FEA500E50F1000041EB85
:1002A000045170BD06F0004646EA010140EA020032
:1002B00081EA0301B4EB5C04C2BFD4EB0C0541EA54
:1002C000045170BD41F480114FF0000E013C00F369
:1002D000AB8014F1360FDEBF002001F0004170BD8D
:1002E000C4F10004203C35DA0C341BDC04F11404A6
:1002F000C4F1200500FA05F320FA04F001FA05F232
:1003000040EA020001F0004221F0004110EBD370FE
:1003100021FA04F642EB06015EEA430E08BF20EA2A
:10032000D37070BDC4F10C04C4F1200500FA04F3CD
:1003300020FA05F001FA04F240EA020001F000415F
:1003400010EBD37041F100015EEA430E08BF20EAD2
:10035000D37070BDC4F1200500FA05F24EEA020E1A
:1003600020FA04F301FA05F243EA020321FA04F049
:1003700001F0004121FA04F220EA020000EBD37000
:100380005EEA430E08BF20EAD37070BD94F0000F00
:100390000FD101F00046400041EB010111F4801F34
:1003A00008BF013CF7D041EA060195F0000F18BFE5
:1003B000704703F00046520043EB030313F4801F21
:1003C00008BF013DF7D043EA0603704794EA0C0FDB
:1003D0000CEA135518BF95EA0C0F0CD050EA4106F1
:1003E00018BF52EA4306D1D181EA030101F000416E
:1003F0004FF0000070BD50EA410606BF1046194696
:1004000052EA430619D094EA0C0F02D150EA0136A1
:1004100013D195EA0C0F05D152EA03361CBF1046E2
:1004200019460AD181EA030101F0004141F0FE4181
:1004300041F470014FF0000070BD41F0FE4141F405
:10044000780170BD81F0004102E000BF83F00043FD
:1004500030B54FEA41044FEA430594EA050F08BF5F
:1004600090EA020F1FBF54EA000C55EA020C7FEA23
:10047000645C7FEA655C00F0E2804FEA5454D4EBA0
:100480005555B8BF6D420CDD2C4480EA020281EA6A
:10049000030382EA000083EA010180EA020281EAA2
:1004A0000303362D88BF30BD11F0004F4FEA0131F4
:1004B0004FF4801C4CEA113102D0404261EB410103
:1004C00013F0004F4FEA03334CEA133302D0524289
:1004D00063EB430394EA050F00F0A780A4F1010445
:1004E000D5F1200E0DDB02FA0EFC22FA05F280187F
:1004F00041F1000103FA0EF2801843FA05F3594165
:100500000EE0A5F120050EF1200E012A03FA0EFCE3
:1005100028BF4CF0020C43FA05F3C01851EBE3710D
:1005200001F0004507D54FF0000EDCF1000C7EEB2A
:1005300000006EEB0101B1F5801F1BD3B1F5001F68
:100540000CD349085FEA30004FEA3C0C04F1010487
:100550004FEA445212F5800F80F09A80BCF1004FB0
:1005600008BF5FEA500C50F1000041EB045141EA32
:10057000050130BD5FEA4C0C404141EB0101013CFB
:1005800028BFB1F5801FE9D291F0000F04BF0146EA
:100590000020B1FA81F308BF2033A3F10B03B3F1BC
:1005A00020020CDA0C3208DD02F1140CC2F10C024C
:1005B00001FA0CF021FA02F10CE002F11402D8BFAA
:1005C000C2F1200C01FA02F120FA0CFCDCBF41EA76
:1005D0000C019040E41AA2BF01EB0451294330BD45
:1005E0006FEA04041F3C1CDA0C340EDC04F1140422
:1005F000C4F1200220FA04F001FA02F340EA0300F9
:1006000021FA04F345EA030130BDC4F10C04C4F13E
:10061000200220FA02F001FA04F340EA030029461E
:1006200030BD21FA04F0294630BD94F0000F83F468
:10063000801306BF81F480110134013D4EE77FEA4B
:10064000645C18BF7FEA655C29D094EA050F08BF97
:1006500090EA020F05D054EA000C04BF1946104678
:1006600030BD91EA030F1EBF0021002030BD5FEABC
:10067000545C05D14000494128BF41F0004130BDE4
:1006800014F580043CBF01F5801130BD01F0004538
:1006900045F0FE4141F470014FF0000030BD7FEAAB
:1006A000645C1ABF194610467FEA655C1CBF0B46A6
:1006B000024650EA013406BF52EA033591EA030FBD
:1006C00041F4002130BD00BF90F0000F04BF0021B5
:1006D000704730B54FF4806404F132044FF00005E8
:1006E0004FF0000150E700BF90F0000F04BF002161
:1006F000704730B54FF4806404F1320410F00045C7
:1007000048BF40424FF000013EE700BF42004FEAC1
:10071000E2014FEA31014FEA02701FBF12F07F433E
:1007200093F07F4F81F06051704732F07F4208BFF5
:10073000704793F07F4F04BF41F40021704730B5FC
:100740004FF4607401F0004521F000411CE700BF48
:1007500050EA010208BF704730B54FF000050AE0CB
:1007600050EA010208BF704730B511F0004502D5CC
:10077000404261EB41014FF4806404F132045FEACE
:10078000915C3FF4D8AE4FF003025FEADC0C18BF77
:1007900003325FEADC0C18BF033202EBDC02C2F169
:1007A000200300FA03FC20FA02F001FA03FE40EAFB
:1007B0000E0021FA02F11444BDE600BF4FF0FF3CE9
:1007C00006E000BF4FF0010C02E000BF4FF0010C4B
:1007D0004DF804CD4FEA410C7FEA6C5C4FEA430CC4
:1007E00018BF7FEA6C5C1BD001B050EA410C0CBF13
:1007F00052EA430C91EA030F02BF90EA020F002075
:10080000704710F1000F91EA030F58BF994208BFDB
:1008100090422CBFD8176FEAE37040F00100704798
:100820004FEA410C7FEA6C5C02D150EA013C07D1EF
:100830004FEA430C7FEA6C5CD6D152EA033CD3D03A
:100840005DF8040B704700BF8446104662468C4634
:100850001946634600E000BF01B5FFF7B7FF002867
:1008600048BF10F1000F01BD4DF808EDFFF7F4FF90
:100870000CBF012000205DF808FB00BF4DF808ED1B
:10088000FFF7EAFF34BF012000205DF808FB00BF3E
:100890004DF808EDFFF7E0FF94BF012000205DF860
:1008A00008FB00BF4DF808EDFFF7CEFF94BF012015
:1008B00000205DF808FB00BF4DF808EDFFF7C4FF0E
:1008C00034BF012000205DF808FB00BF4A0011D2B0
:1008D00012F5001211D20DD56FF47873B3EB62529A
:1008E0000ED44FEAC12343F0004343EA505323FAA6
:1008F00002F070474FF00000704750EA013002D11B
:100900004FF0FF3070474FF00000704753B94AB9BD
:10091000002908BF00281CBF4FF0FF314FF0FF3007
:1009200000F06AB9ADF1080C6DE904CE00F006F8EC
:10093000DDF804E0DDE9022304B070472DE9F0475B
:10094000089D0C46002B4ED194468C458646B2FA43
:1009500082F262D94AB1C2F12003914020FA03F336
:100960000CFA02FC194300FA02FE4FEA1C471FFA78
:100970008CF6B1FBF7F44FEA1E4307FB141143EA70
:10098000014304FB06F199420AD91CEB030304F16D
:10099000FF3080F01281994240F20F81023C6344A3
:1009A000591A1FFA8EF3B1FBF7F007FB101143EA57
:1009B000014300FB06F69E420AD91CEB030300F13B
:1009C000FF3180F0FC809E4240F2F980634402389F
:1009D0009B1B40EA044000211DB1D3400022C5E921
:1009E0000032BDE8F0878B4205D90DB1C5E90001A1
:1009F00000210846F5E7B3FA83F1002946D1A34266
:100A000002D39042C0F0F080861A64EB0303012009
:100A1000002DE6D0C5E90063E3E7002A40F09080AE
:100A2000A1EB0C044FEA1C481FFA8CF70121B4FB20
:100A3000F8F64FEA1E4308FB164443EA044307FB5B
:100A400006F0984208D91CEB030306F1FF3402D2EA
:100A5000984200F2CD8026461C1A1FFA8EF3B4FB92
:100A6000F8F008FB104443EA044300FB07F79F42F9
:100A700008D91CEB030300F1FF3402D29F4200F2BD
:100A8000B0802046DB1B40EA0640A5E7C1F1200606
:100A90008B4022FA06F71F4320FA06FC04FA01F302
:100AA00043EA0C03F44000FA01F8380C4FEA13490A
:100AB000B4FBF0FE1FFA87FC00FB1E4449EA044425
:100AC0000EFB0CF9A14502FA01F20AD93C190EF10C
:100AD000FF3A80F08480A14540F28180AEF1020EA1
:100AE0003C44A4EB09041FFA83F9B4FBF0F300FBC8
:100AF000134449EA044403FB0CFCA44507D93C1900
:100B000003F1FF3067D2A44565D9023B3C4443EA78
:100B10000E40A0FB0293A4EB0C049C42CE469C46E4
:100B200051D34ED055B1B8EB0E0364EB0C0404FA6C
:100B300006F6CB401E43CC40C5E90064002150E7D7
:100B4000C2F1200320FA03F10CFA02FC24FA03F3A9
:100B500094400C434FEA1C4800FA02FE1FFA8CF73F
:100B6000B3FBF8F008FB1031230C43EA014300FB10
:100B700007F1994208D91CEB030300F1FF362CD290
:100B800099422AD9023863445B1AA4B2B3FBF8F144
:100B900008FB113344EA034401FB07F3A34208D9DD
:100BA0001CEB040401F1FF3613D2A34211D9023920
:100BB0006444E41A41EA004139E70446F0E6084695
:100BC00006E7C845AED2B9EB020E63EB070C01385D
:100BD000A8E73146EDE7034699E73046D4E7D64625
:100BE0007FE7634402384DE70646234608460FE791
:100BF000023E634430E700BF704700BF80B485B059
:100C000000AFF860B9607A60FB70FB68BA681A6080
:100C1000FB68FA781A72FB687A685A60FB68074AC0
:100C20001A61FB68064ADA60FB683A7E5A7200BFB6
:100C30001437BD465DF8047B704700BFAD0D00085A
:100C4000450C000880B483B000AF78600B46FB70A1
:100C50001346BB707B681B681A687B681B6842F48C
:100C600080721A6000BF7B681B681B6803F4807386
:100C7000002BF8D07B681B681969FA787B681B68C1
:100C80000A431A6100BF7B681B685B6903F00203BB
:100C9000002BF8D17B681B685B6900BF7B681B6811
:100CA0005B6903F08003002BF8D00E4B1A69BB7808
:100CB0000C4913430B6100BF7B681B685B6903F041
:100CC0000403002BF8D17B681B681A687B681B68DB
:100CD00022F480721A6000BF0C37BD465DF8047BB9
:100CE000704700BF0054004080B487B000AFF86088
:100CF000B96011461A460B46FB711346BB71FB687F
:100D00001B681A68FB681B6842F480721A6000BF97
:100D1000FB681B681B6803F48073002BF8D0FB682A
:100D20001B681969BA79FB681B680A431A6100BF1E
:100D3000FB681B685B6903F00203002BF8D1FB68BA
:100D40001B685B6900237B611EE000BFFB681B68BA
:100D50005B6903F08003002BF8D0FB681B681A69FD
:100D60007B69B9680B441B781946FB681B680A430A
:100D70001A6100BFFB681B685B6903F00403002B6A
:100D8000F8D17B6901337B61FB797A699A42DCDBBC
:100D9000FB681B681A68FB681B6822F480721A6083
:100DA00000BF1C37BD465DF8047B704780B485B03A
:100DB00000AFF8600B467A60FB72FB681B681A682C
:100DC000FB681B6842F480721A6000BFFB681B68F6
:100DD0001B6803F48073002BF8D0FB681B6819694B
:100DE000FA7AFB681B680A431A6100BFFB681B683C
:100DF0005B6903F00203002BF8D1FB681B685B6999
:100E000000BFFB681B685B6903F04003002BF8D050
:100E1000FB681B681B697B6000BFFB681B685B6924
:100E200003F00403002BF8D1FB681B681A68FB6809
:100E30001B6822F480721A6000BF1437BD465DF84B
:100E4000047B704780B487B000AFF860B96011468A
:100E50001A460B46FB711346BB71FB681B681A6888
:100E6000FB681B6842F480721A6000BFFB681B6855
:100E70001B6803F48073002BF8D0FB681B681969AA
:100E8000FA79FB681B680A431A6100BFFB681B689C
:100E90005B6903F00203002BF8D1FB681B685B69F8
:100EA0000023FB751AE000BFFB681B685B6903F059
:100EB0004003002BF8D0FB681B681969FB7DBA68FA
:100EC0001344CAB21A7000BFFB681B685B6903F069
:100ED0000403002BF8D1FB7D0133FB75FA7DBB7950
:100EE0009A42E0D3FB681B681A68FB681B6822F40F
:100EF00080721A6000BF1C37BD465DF8047B7047E6
:100F000080B487B000AFF860B96011461A460B464E
:100F1000FB711346BB71FB681B681A68FB681B6892
:100F200042F480721A6000BFFB681B681B6803F400
:100F30008073002BF8D0FB681B681969FA79FB688D
:100F40001B680A431A6100BFFB681B685B6903F0FA
:100F50000203002BF8D1FB681B685B6900BFFB68CC
:100F60001B685B6903F08003002BF8D0FB681B68EB
:100F70001969BA79FB681B680A431A6100BFFB68EC
:100F80001B685B6903F00403002BF8D10023FB7599
:100F90001AE000BFFB681B685B6903F04003002B8D
:100FA000F8D0FB681B681969FB7DBA681344CAB2A4
:100FB0001A7000BFFB681B685B6903F00403002B19
:100FC000F8D1FB7D0133FB75FB7D012BE1D9FB687B
:100FD0001B681A68FB681B6822F480721A6000BFE5
:100FE0001C37BD465DF8047B7047000080B483B0B9
:100FF00000AF0346FB7197F90730002B0BDBFB7941
:1010000003F01F02074997F907305B09012000FA36
:1010100002F241F8232000BF0C37BD465DF8047B87
:10102000704700BF00E100E080B483B000AF03462A
:101030003960FB7197F90730002B0ADB3B68DAB2A5
:101040000C4997F907301201D2B20B4483F8002300
:101050000AE03B68DAB20849FB7903F00F03043B6E
:101060001201D2B20B441A7600BF0C37BD465DF8B0
:10107000047B704700E100E000ED00E080B400AFC9
:101080004A4B1B68494A23F003031360474B1B6814
:10109000464A43F00A031360444B5B68434A23F01B
:1010A00003035360414B5B68404A43F003035360C2
:1010B0003E4B9B683D4A23F00F0393603B4B9B687C
:1010C0003A4A43F005039360384BDB68374A23F014
:1010D0000F03D360354BDB68344A43F00503D3601C
:1010E0004FF08043DB6A4FF080430022DA624FF01A
:1010F00080439B6A4FF080421B0C1B0493624FF0AD
:101100008043DB6A4FF0804243F41B4343F0770394
:10111000D3624FF080439B6A4FF0804243F07103EB
:1011200093624FF080431B684FF0804243F001030D
:1011300013601E4B1B6A1D4A43F0030313621B4BD3
:101140001B6A1A4A43F030031362194B9B68184A12
:1011500023F400439360164B9B68154A43F06003E9
:101160009360134B5B68124A23F03F035360104BAC
:101170005B680F4A43F0050353600D4BDB690C4A73
:1011800023F47F6323F00F03D361094BDB69084A23
:1011900043F02803D361064B1B68054A43F0010363
:1011A000136000BFBD465DF8047B70470014024029
:1011B0000054004080B400AF664B1B68654A23F4BE
:1011C0007C431360634B1B68624A43F428431360FB
:1011D000604BDB685F4A23F47C43D3605D4BDB6884
:1011E0005C4A43F4A843D3605B4B1B685A4A43F400
:1011F00080731360584BDB68574A23F44073D36005
:10120000554B554A5B685360534B9B68524A43F4B5
:1012100080739360504B5B694F4A43F010035361F6
:101220004C4B1B684B4A43F010031360494BDB687F
:10123000484A23F03003D360464B464A5B6853600C
:10124000444B9B68434A43F010039360414B5B69F6
:10125000404A43F004035361404BDB6A3F4B00229A
:10126000DA623E4B9B6A3D4A1B0C1B0493623B4B6C
:10127000DB6A3A4A43F41C4343F03F03D362374BE3
:101280009B6A364A43F070039362344B1B68334ABF
:1012900043F00103136000BF304B1B692F4B1B69E8
:1012A0002E4A23F0010313612A4B5A6829494FF64D
:1012B0001F7313404B60274B9B68264A23F47C43E3
:1012C0009360244B9B68234A43F428439360214B4B
:1012D0001B6A204A43F0CC4343F4A0031362204B23
:1012E0001B681F4A23F0380313601D4B1B681C4A00
:1012F00043F0100313601A4B1B68194A23F00303D1
:101300001360174B1B68164A43F004031360144B19
:101310001B68134A43F440731360114B1B68104A57
:1013200023F0800313600E4B1B680D4A43F40063E7
:1013300013600B4B1B680A4A23F404431360084BE9
:101340001B68074A43F04003136000BFBD465DF8C9
:10135000047B704700000240001802400014004067
:101360000030014080B400AF5E4B1B685D4A23F043
:101370007C5313605B4B1B685A4A43F0285313603D
:10138000584BDB68574A23F07C53D360554BDB68DE
:10139000544A43F0A853D360524B1B68514A23F47C
:1013A0007C0313604F4B1B684E4A43F4A803136041
:1013B0004D4BDB6A4C4B0022DA624B4B9B6A4A4A2C
:1013C0001B0C1B049362484BDB6A474A43F49C4363
:1013D00043F02003D362444B9B6A434A43F0FB0330
:1013E0009362404B5B693F4A43F4007353613E4B49
:1013F0001B683D4A43F00103136000BF3A4B1B6872
:1014000003F00103002BF9D0364B5B69354A23F416
:1014100000735361344B1B68334A23F0010313609C
:10142000304B5A682F4948F6FF7313404B602D4BE1
:101430009B682C4A23F07C5393602A4B9B68294A73
:1014400043F028539360274B5B69264A43F40063BB
:101450005361244B5B6A234AC3F313035362214B4A
:101460005B6A204A43F0886343F4A02353621F4B16
:101470001B681E4A23F0380313601C4B1B681B4A71
:1014800043F010031360194B1B68184A23F0030341
:101490001360164B1B68154A43F004031360134B8B
:1014A0001B68124A43F440731360104B1B680F4AC9
:1014B00023F0800313600D4B1B680C4A43F4006358
:1014C00013600A4B1B68094A23F404431360074B5B
:1014D0001B68064A43F04003136000BFBD465DF839
:1014E000047B70470018024000100040003C0040A0
:1014F00080B400AF484B1B68474A23F07C5313600D
:10150000454B1B68444A43F028531360424BDB6849
:10151000414A23F07C53D3603F4BDB683E4A43F0A3
:10152000A853D3603C4B1B683B4A23F44003136031
:10153000394B1B68384A43F480031360364BDB6831
:10154000354A23F44003D360334B5A68324948F696
:10155000FF7313404B60304B5A682F494FF2FF73B3
:1015600013404B602C4B9B682B4A23F07C539360B9
:10157000294B9B68284A43F028539360264B9B686D
:10158000254A43F480039360234B5B6A224A23F08D
:101590007F6323F4702353621F4B1F4A5B6A5362BD
:1015A0001E4B1B681D4A23F0380313601B4B1B683E
:1015B0001A4A43F010031360184B1B68174A23F0B4
:1015C00003031360154B1B68144A43F004031360B4
:1015D000124B1B68114A43F4407313600F4B1B6896
:1015E0000E4A23F0800313600C4B1B680B4A43F434
:1015F00000631360094B1B68084A23F4044313601B
:10160000064B1B68054A43F04003136000BFBD460C
:101610005DF8047B704700BF0010024000340140B9
:1016200080B400AF114B1B6C104A23F4021323F05B
:10163000310313640D4B1B6C0C4A43F4021343F04B
:1016400031031364094B1A6A084947F6CE731340F5
:101650000B62064B1B6A054A43F4031343F0310344
:10166000136200BFBD465DF8047B7047003802403E
:1016700080B400AF114B5B6C104A23F4E04323F0BD
:10168000210353640D4B5B6C0C4A43F4E04343F07D
:1016900021035364094B5A6A084948F6DF73134023
:1016A0004B62064B5B6A054A43F48E2343F02003EA
:1016B000536200BFBD465DF8047B704700380240AE
:1016C00080B400AF0B4B1B6B0A4A23F07F031363FC
:1016D000084B1A6907494FF6827313400B61054B9B
:1016E0001B69044A43F07D03136100BFBD465DF8EA
:1016F000047B70470038024080B500AF1F4BDB6AA7
:101700001E4B0022DA621D4B9B6A1C4A1B0C1B04F9
:1017100093621A4BDB6A194A43F41C5343F01003DB
:10172000D362164B9B6A154A43F4E1639362134BF1
:10173000DB68124B0022DA60104BDB680F4A43F083
:101740000103D3600D4B1B680C4A43F00103136087
:1017500000BF0B4B1B6903F00103002BF9D0074BB3
:101760001B69064A23F00103136101211920FFF7C9
:101770005BFC1920FFF73AFC00BF80BD0000014070
:101780000010004080B483B000AF0346FB7197F9AE
:101790000730002B0BDBFB7903F01F02074997F999
:1017A00007305B09012000FA02F241F8232000BF54
:1017B0000C37BD465DF8047B704700BF00E100E0D8
:1017C00080B485B000AFF860B96011461A460B4688
:1017D000FB711346BB71FB68BA689A60FB68FA79C3
:1017E0001A70FB68BA795A70FB683A7E9A70FB6887
:1017F0003A7FDA70FB6897F820201A71FB689B68C3
:101800001A68F97997F820305B0001FA03F3DB439B
:101810001946FB689B680A401A60FB689B681A6857
:10182000F97997F820305B0001FA03F31946FB6859
:101830009B680A431A60FB689B685A68B97997F8F5
:10184000203001FA03F3DB431946FB689B680A402A
:101850005A60FB689B685A68B97997F8203001FA9A
:1018600003F31946FB689B680A435A60FB689B6850
:101870009A68397E97F820305B0001FA03F3DB4366
:101880001946FB689B680A409A60FB689B689A68E7
:10189000397E97F820305B0001FA03F31946FB68A4
:1018A0009B680A439A60FB689B68DA68397F97F8FF
:1018B00020305B0001FA03F3DB431946FB689B68A9
:1018C0000A40DA60FB689B68DA68397F97F8203055
:1018D0005B0001FA03F31946FB689B680A43DA6070
:1018E00000BF1437BD465DF8047B704780B584B0F7
:1018F00000AFF860B96011461A460B46FB711346FB
:10190000BB71BA68FB689A60FB68FA791A70FB6869
:10191000BA795A70FB683A7E9A70FB683A7FDA703F
:10192000FB6897F820201A71FB689B681A68F979A0
:1019300097F820305B0001FA03F3DB431946FB689C
:101940009B680A401A60FB689B681A68F97997F8E7
:1019500020305B0001FA03F31946FB689B680A43D9
:101960001A60FB689B685A68B97997F8203001FAC9
:1019700003F3DB431946FB689B680A405A60FB6827
:101980009B685A68B97997F8203001FA03F3194631
:10199000FB689B680A435A60FB689B689A68397EBB
:1019A00097F820305B0001FA03F3DB431946FB682C
:1019B0009B680A409A60FB689B689A68397E97F832
:1019C00020305B0001FA03F31946FB689B680A4369
:1019D0009A60FB689B68DA68397F97F820305B0073
:1019E00001FA03F3DB431946FB689B680A40DA609F
:1019F000FB689B68DA68397F97F820305B0001FA52
:101A000003F31946FB689B680A43DA6097F82030B5
:101A10000F2B02F2998401A252F823F05D1A0008FC
:101A2000F11C0008851F000819220008AD240008D9
:101A300041270008D5290008692C0008FD2E000860
:101A40009131000825340008B93600084D390008E6
:101A5000DD3B0008613E0008E540000807F108038F
:101A60009B4A934224D19B4B9A4A9B689360994B23
:101A7000984A9B689360984B9B68974A23F00103B0
:101A80009360954B9B68944A43F001039360924B9B
:101A90001B68914A23F0010313608F4B1B688E4A29
:101AA00043F0010313600620FFF76CFE02F04CBC0C
:101AB00007F10803894A934228D1864B9B68854ADF
:101AC00023F001039360834B9B68824A43F0010338
:101AD0009360814B9B68804A23F0010393607E4BA7
:101AE0009B687D4A43F0010393607B4B1B687A4AF5
:101AF00023F001031360784B1B68774A43F001031E
:101B000013600620FFF73EFE02F01EBC07F108033B
:101B1000734A934228D16F4B9B686E4A23F00203AD
:101B200093606C4B9B686B4A43F0020393606A4B73
:101B30009B68694A23F001039360674B9B68664A80
:101B400043F001039360644B1B68634A23F0010375
:101B50001360614B1B68604A43F001031360062069
:101B6000FFF710FE02F0F0BB07F108035D4A934255
:101B700028D1584B9B68574A23F003039360554B79
:101B80009B68544A43F003039360534B9B68524A4B
:101B900023F001039360504B9B684F4A43F00103CD
:101BA00093604D4B1B684C4A23F0010313604A4B72
:101BB0001B68494A43F0010313600620FFF7E2FD6A
:101BC00002F0C2BB07F10803474A934228D1414BB8
:101BD0009B68404A23F0040393603E4B9B683D4A58
:101BE00043F0040393603C4B9B683B4A23F00103A2
:101BF0009360394B9B68384A43F001039360364B3E
:101C00001B68354A23F001031360334B1B68324ACB
:101C100043F0010313600620FFF7B4FD02F094BB0C
:101C200007F10803314A934228D12A4B9B68294A7D
:101C300023F005039360274B9B68264A43F0050376
:101C40009360254B9B68244A23F001039360224B49
:101C50009B68214A43F0010393601F4B1B681E4A97
:101C600023F0010313601C4B1B681B4A43F0010364
:101C700013600620FFF786FD02F066BB154B9B68DC
:101C8000144A23F006039360124B9B68114A43F0F9
:101C900006039360104B9B680F4A23F00103936087
:101CA0000D4B9B680C4A43F0010393600A4B1B6881
:101CB000094A23F001031360074B1B68064A43F0EF
:101CC000010313600620FFF75DFD02F03DBB00BF7E
:101CD0000000024000380140003C01400004024086
:101CE00000080240000C02400010024000140240B4
:101CF00007F108039B4A934224D19B4B9A4A9B6865
:101D00009360994B984A9B689360984B9B68974A5D
:101D100023F002039360954B9B68944A43F00203BF
:101D20009360924B1B68914A23F0020313608F4B20
:101D30001B688E4A43F0020313600720FFF722FD61
:101D400002F002BB07F10803894A934228D1864B6F
:101D50009B68854A23F010039360834B9B68824AFB
:101D600043F010039360814BDB68804A23F0020349
:101D7000D3607E4BDB687D4A43F00203D3607B4B2C
:101D80001B687A4A23F002031360784B1B68774A7A
:101D900043F0020313600720FFF7F4FC02F0D4BA0B
:101DA00007F10803734A934228D16F4B9B686E4A30
:101DB00023F0200393606C4B9B686B4A43F0200335
:101DC00093606A4B9B68694A23F002039360674BF8
:101DD0009B68664A43F002039360644B1B68634A46
:101DE00023F002031360614B1B68604A43F0020357
:101DF00013600720FFF7C6FC02F0A6BA07F108033C
:101E00005D4A934228D1584B9B68574A23F03003D0
:101E10009360554B9B68544A43F030039360534B97
:101E20009B68524A23F002039360504B9B684F4AD1
:101E300043F0020393604D4B1B684C4A23F00203AE
:101E400013604A4B1B68494A43F0020313600720A2
:101E5000FFF798FC02F078BA07F10803474A93426B
:101E600028D1414B9B68404A23F0400393603E4B8E
:101E70009B683D4A43F0400393603C4B9B683B4A60
:101E800023F002039360394B9B68384A43F0020306
:101E90009360364B1B68354A23F002031360334BC3
:101EA0001B68324A43F0020313600720FFF76AFC05
:101EB00002F04ABA07F10803314A934228D12A4B6B
:101EC0009B68294A23F050039360274B9B68264A5E
:101ED00043F050039360254B9B68244A23F0020390
:101EE0009360224B9B68214A43F0020393601F4B8F
:101EF0001B681E4A23F0020313601C4B1B681B4A1D
:101F000043F0020313600720FFF73CFC02F01CBA09
:101F1000154B9B68144A23F060039360124B9B6837
:101F2000114A43F060039360104B9B680F4A23F003
:101F3000020393600D4B9B680C4A43F002039360CD
:101F40000A4B1B68094A23F002031360074B1B6806
:101F5000064A43F0020313600720FFF713FC02F068
:101F6000F3B900BF0000024000380140003C0140CE
:101F70000004024000080240000C02400010024031
:101F80000014024007F108039B4A934224D19B4B63
:101F90009A4A9B689360994B984A9B689360984BC8
:101FA0009B68974A23F004039360954B9B68944A7F
:101FB00043F004039360924B1B68914A23F004039F
:101FC00013608F4B1B688E4A43F004031360082094
:101FD000FFF7D8FB02F0B8B907F10803894A93422A
:101FE00028D1864B9B68854A23F480739360834B8A
:101FF0009B68824A43F480739360814B9B68804A5C
:1020000023F0040393607E4B9B687D4A43F00403F6
:1020100093607B4B1B687A4A23F004031360784B70
:102020001B68774A43F0040313600820FFF7AAFBFC
:1020300002F08AB907F10803734A934228D16F4B23
:102040009B686E4A23F4007393606C4B9B686B4AE9
:1020500043F4007393606A4B9B68694A23F004035E
:102060009360674B9B68664A43F004039360644B3C
:102070001B68634A23F004031360614B1B68604ACA
:1020800043F0040313600820FFF77CFB02F05CB907
:1020900007F108035D4A934228D1584B9B68574A81
:1020A00023F440739360554B9B68544A43F4407348
:1020B0009360534B9B68524A23F004039360504B48
:1020C0009B684F4A43F0040393604D4B1B684C4A96
:1020D00023F0040313604A4B1B68494A43F004038E
:1020E00013600820FFF74EFB02F02EB907F108033A
:1020F000474A934228D1414B9B68404A23F480636E
:1021000093603E4B9B683D4A43F4806393603C4B35
:102110009B683B4A23F004039360394B9B68384A21
:1021200043F004039360364B1B68354A23F00403E5
:102130001360334B1B68324A43F0040313600820DA
:10214000FFF720FB02F000B907F10803314A934280
:1021500028D12A4B9B68294A23F4A0639360274B1C
:102160009B68264A43F4A0639360254B9B68244AEE
:1021700023F004039360224B9B68214A43F004033D
:1021800093601F4B1B681E4A23F0040313601C4B13
:102190001B681B4A43F0040313600820FFF7F2FAA0
:1021A00002F0D2B8154B9B68144A23F4C0639360C5
:1021B000124B9B68114A43F4C0639360104B9B68B9
:1021C0000F4A23F0040393600D4B9B680C4A43F0C5
:1021D000040393600A4B1B68094A23F0040313604D
:1021E000074B1B68064A43F0040313600820FFF7FF
:1021F000C9FA02F0A9B800BF00000240003801404F
:10220000003C01400004024000080240000C024073
:10221000001002400014024007F108039B4A934259
:1022200024D19B4B9A4A9B689360994B984A9B6830
:102230009360984B9B68974A23F008039360954BF3
:102240009B68944A43F008039360924B1B68914A41
:1022500023F0080313608F4B1B688E4A43F008037A
:1022600013600920FFF78EFA02F06EB807F1080339
:10227000894A934228D1864B9B68854A23F4805330
:102280009360834B9B68824A43F480539360814BF5
:102290009B68804A23F0080393607E4B9B687D4ACD
:1022A00043F0080393607B4B1B687A4A23F00803D2
:1022B0001360784B1B68774A43F0080313600920CA
:1022C000FFF760FA02F040B807F10803734A93423F
:1022D00028D16F4B9B686E4A23F4005393606C4B7C
:1022E0009B686B4A43F4005393606A4B9B68694A4E
:1022F00023F008039360674B9B68664A43F008032A
:102300009360644B1B68634A23F008031360614BBE
:102310001B68604A43F0080313600920FFF732FA94
:1023200002F012B807F108035D4A934228D1584BD6
:102330009B68574A23F440539360554B9B68544A1B
:1023400043F440539360534B9B68524A23F0080375
:102350009360504B9B684F4A43F0080393604D4B8A
:102360001B684C4A23F0080313604A4B1B68494A18
:1023700043F0080313600920FFF704FA01F0E4BFFB
:1023800007F10803474A934228D1414B9B68404AD2
:1023900023F4804393603E4B9B683D4A43F4804363
:1023A00093603C4B9B683B4A23F008039360394B96
:1023B0009B68384A43F008039360364B1B68354AE4
:1023C00023F008031360334B1B68324A43F00803C1
:1023D00013600920FFF7D6F901F0B6BF07F1080333
:1023E000314A934228D12A4B9B68294A23F4A043BF
:1023F0009360274B9B68264A43F4A0439360254B88
:102400009B68244A23F008039360224B9B68214A6F
:1024100043F0080393601F4B1B681E4A23F0080318
:1024200013601C4B1B681B4A43F008031360092010
:10243000FFF7A8F901F088BF154B9B68144A23F4F5
:10244000C0439360124B9B68114A43F4C0439360AE
:10245000104B9B680F4A23F0080393600D4B9B6859
:102460000C4A43F0080393600A4B1B68094A23F0A7
:1024700008031360074B1B68064A43F00803136008
:102480000920FFF77FF901F05FBF00BF00000240A5
:1024900000380140003C01400004024000080240B6
:1024A000000C0240001002400014024007F1080333
:1024B0009B4A934224D19B4B9A4ADB68D360994B49
:1024C000984ADB68D360984B9B68974A23F01003C7
:1024D0009360954B9B68944A43F010039360924B32
:1024E0001B68914A23F0100313608F4B1B688E4AC0
:1024F00043F0100313600A20FFF744F901F024BFF2
:1025000007F10803894A934228D1864BDB68854A44
:1025100023F00103D360834BDB68824A43F001035D
:10252000D360814B9B68804A23F0100393607E4BFD
:102530009B687D4A43F0100393607B4B1B687A4A8B
:1025400023F010031360784B1B68774A43F01003A5
:1025500013600A20FFF716F901F0F6BE07F1080331
:10256000734A934228D16F4BDB686E4A23F0020313
:10257000D3606C4BDB686B4A43F00203D3606A4B59
:102580009B68694A23F010039360674B9B68664A17
:1025900043F010039360644B1B68634A23F01003FD
:1025A0001360614B1B68604A43F0100313600A20FC
:1025B000FFF7E8F801F0C8BE07F108035D4A93424F
:1025C00028D1584BDB68574A23F00303D360554B9F
:1025D000DB68544A43F00303D360534B9B68524A71
:1025E00023F010039360504B9B684F4A43F0100355
:1025F00093604D4B1B684C4A23F0100313604A4B09
:102600001B68494A43F0100313600A20FFF7BAF829
:1026100001F09ABE07F10803474A934228D1414B83
:10262000DB68404A23F00403D3603E4BDB683D4A3D
:1026300043F00403D3603C4B9B683B4A23F01003F8
:102640009360394B9B68384A43F010039360364BD4
:102650001B68354A23F010031360334B1B68324A62
:1026600043F0100313600A20FFF78CF801F06CBEF2
:1026700007F10803314A934228D12A4BDB68294AE3
:1026800023F00503D360274BDB68264A43F005039C
:10269000D360254B9B68244A23F010039360224BA0
:1026A0009B68214A43F0100393601F4B1B681E4A2E
:1026B00023F0100313601C4B1B681B4A43F01003EC
:1026C00013600A20FFF75EF801F03EBE154BDB6891
:1026D000144A23F00603D360124BDB68114A43F01F
:1026E0000603D360104B9B680F4A23F010039360DE
:1026F0000D4B9B680C4A43F0100393600A4B1B6818
:10270000094A23F010031360074B1B68064A43F085
:10271000100313600A20FFF735F801F015BE00BF63
:102720000000024000380140003C0140000402402B
:1027300000080240000C0240001002400014024059
:1027400007F108039B4A934224D19B4B9A4ADB68CA
:10275000D360994B984ADB68D360984B9B68974A43
:1027600023F020039360954B9B68944A43F0200329
:102770009360924B1B68914A23F0200313608F4BA8
:102780001B688E4A43F0200313600A20FEF7FAFF0D
:1027900001F0DABD07F10803894A934228D1864B3C
:1027A000DB68854A23F01003D360834BDB68824AE1
:1027B00043F01003D360814B9B68804A23F02003D1
:1027C00093607E4B9B687D4A43F0200393607B4B74
:1027D0001B687A4A23F020031360784B1B68774A02
:1027E00043F0200313601720FEF7CCFF01F0ACBDCF
:1027F00007F10803734A934228D16F4BDB686E4A96
:1028000023F02003D3606C4BDB686B4A43F020035A
:10281000D3606A4B9B68694A23F020039360674B3F
:102820009B68664A43F020039360644B1B68634ACD
:1028300023F020031360614B1B68604A43F02003C0
:1028400013601720FEF79EFF01F07EBD07F108031D
:102850005D4A934228D1584BDB68574A23F0300336
:10286000D360554BDB68544A43F03003D360534B7D
:102870009B68524A23F020039360504B9B684F4A59
:1028800043F0200393604D4B1B684C4A23F0200318
:1028900013604A4B1B68494A43F02003136017201A
:1028A000FEF770FF01F050BD07F10803474A93425D
:1028B00028D1414BDB68404A23F04003D3603E4BB4
:1028C000DB683D4A43F04003D3603C4B9B683B4A86
:1028D00023F020039360394B9B68384A43F0200370
:1028E0009360364B1B68354A23F020031360334B4B
:1028F0001B68324A43F0200313601720FEF742FFA3
:1029000001F022BD07F10803314A934228D12A4B36
:10291000DB68294A23F05003D360274BDB68264A43
:1029200043F05003D360254B9B68244A23F02003D7
:102930009360224B9B68214A43F0200393601F4B16
:102940001B681E4A23F0200313601C4B1B681B4AA4
:1029500043F0200313601720FEF714FF01F0F4BCCE
:10296000154BDB68144A23F06003D360124BDB681D
:10297000114A43F06003D360104B9B680F4A23F069
:10298000200393600D4B9B680C4A43F02003936037
:102990000A4B1B68094A23F020031360074B1B688E
:1029A000064A43F0200313601720FEF7EBFE01F008
:1029B000CBBC00BF0000024000380140003C014099
:1029C0000004024000080240000C024000100240D7
:1029D0000014024007F108039B4A934224D19B4B09
:1029E0009A4ADB68D360994B984ADB68D360984B6E
:1029F0009B68974A23F040039360954B9B68944AE9
:102A000043F040039360924B1B68914A23F04003CC
:102A100013608F4B1B688E4A43F0400313601720EE
:102A2000FEF7B0FE01F090BC07F10803894A93421B
:102A300028D1864BDB68854A23F48073D360834BAF
:102A4000DB68824A43F48073D360814B9B68804A81
:102A500023F0400393607E4B9B687D4A43F0400324
:102A600093607B4B1B687A4A23F040031360784BDA
:102A70001B68774A43F0400313601720FEF782FE7D
:102A800001F062BC07F10803734A934228D16F4BEF
:102A9000DB686E4A23F40073D3606C4BDB686B4ACF
:102AA00043F40073D3606A4B9B68694A23F0400388
:102AB0009360674B9B68664A43F040039360644BA6
:102AC0001B68634A23F040031360614B1B68604A34
:102AD00043F0400313601720FEF754FE01F034BCAE
:102AE00007F108035D4A934228D1584BDB68574AE7
:102AF00023F44073D360554BDB68544A43F440736E
:102B0000D360534B9B68524A23F040039360504B71
:102B10009B684F4A43F0400393604D4B1B684C4AFF
:102B200023F0400313604A4B1B68494A43F04003BB
:102B300013601720FEF726FE01F006BC07F108031C
:102B4000474A934228D1414BDB68404A23F48063D3
:102B5000D3603E4BDB683D4A43F48063D3603C4B1B
:102B60009B683B4A23F040039360394B9B68384A8B
:102B700043F040039360364B1B68354A23F0400313
:102B80001360334B1B68324A43F040031360172035
:102B9000FEF7F8FD01F0D8BB07F10803314A934274
:102BA00028D12A4BDB68294A23F4A063D360274B42
:102BB000DB68264A43F4A063D360254B9B68244A14
:102BC00023F040039360224B9B68214A43F040036B
:102BD00093601F4B1B681E4A23F0400313601C4B7D
:102BE0001B681B4A43F0400313601720FEF7CAFD21
:102BF00001F0AABB154BDB68144A23F4C063D36011
:102C0000124BDB68114A43F4C063D360104B9B68DE
:102C10000F4A23F0400393600D4B9B680C4A43F02E
:102C2000400393600A4B1B68094A23F0400313607A
:102C3000074B1B68064A43F0400313601720FEF75A
:102C4000A1FD01F081BB00BF00000240003801403F
:102C5000003C01400004024000080240000C024019
:102C6000001002400014024007F108039B4A9342FF
:102C700024D19B4B9A4ADB68D360994B984ADB6816
:102C8000D360984B9B68974A23F080039360954BE1
:102C90009B68944A43F080039360924B1B68914A6F
:102CA00023F0800313608F4B1B688E4A43F0800330
:102CB00013601720FEF766FD01F046BB07F108031D
:102CC000894A934228D1864BDB68854A23F4805396
:102CD000D360834BDB68824A43F48053D360814BDB
:102CE0009B68804A23F0800393607E4B9B687D4AFB
:102CF00043F0800393607B4B1B687A4A23F0800388
:102D00001360784B1B68774A43F0800313601720E9
:102D1000FEF738FD01F018BB07F10803734A934230
:102D200028D16F4BDB686E4A23F40053D3606C4BA1
:102D3000DB686B4A43F40053D3606A4B9B68694A73
:102D400023F080039360674B9B68664A43F08003DF
:102D50009360644B1B68634A23F080031360614BEC
:102D60001B68604A43F0800313601720FEF70AFDDA
:102D700001F0EABA07F108035D4A934228D1584BA3
:102D8000DB68574A23F44053D360554BDB68544A01
:102D900043F44053D360534B9B68524A23F0800363
:102DA0009360504B9B684F4A43F0800393604D4BB8
:102DB0001B684C4A23F0800313604A4B1B68494A46
:102DC00043F0800313601720FEF7DCFC01F0BCBA6F
:102DD00007F10803474A934228D1414BDB68404A38
:102DE00023F48043D3603E4BDB683D4A43F4804389
:102DF000D3603C4B9B683B4A23F080039360394B84
:102E00009B68384A43F080039360364B1B68354A11
:102E100023F080031360334B1B68324A43F0800376
:102E200013601720FEF7AEFC01F08EBA07F108031D
:102E3000314A934228D12A4BDB68294A23F4A04324
:102E4000D360274BDB68264A43F4A043D360254B6D
:102E50009B68244A23F080039360224B9B68214A9D
:102E600043F0800393601F4B1B681E4A23F08003CE
:102E700013601C4B1B681B4A43F080031360172030
:102E8000FEF780FC01F060BA154BDB68144A23F4AE
:102E9000C043D360124BDB68114A43F4C043D36094
:102EA000104B9B680F4A23F0800393600D4B9B6887
:102EB0000C4A43F0800393600A4B1B68094A23F0D5
:102EC00080031360074B1B68064A43F080031360BE
:102ED0001720FEF757FC01F037BA00BF0000024090
:102EE00000380140003C014000040240000802405C
:102EF000000C0240001002400014024007F10803D9
:102F00009B4A934224D19B4B9A4A1B691361994B6C
:102F1000984A1B691361984B9B68974A23F4807306
:102F20009360954B9B68944A43F480739360924BF3
:102F30001B68914A23F4807313608F4B1B688E4A81
:102F400043F4807313601720FEF71CFC01F0FCB9FA
:102F500007F10803894A934228D1864B1B69854AA9
:102F600023F001031361834B1B69824A43F0010381
:102F70001361814B9B68804A23F4807393607E4B7E
:102F80009B687D4A43F4807393607B4B1B687A4A4D
:102F900023F480731360784B1B68774A43F4807383
:102FA00013601720FEF7EEFB01F0CEB907F108031E
:102FB000734A934228D16F4B1B696E4A23F0020378
:102FC00013616C4B1B696B4A43F0020313616A4B3C
:102FD0009B68694A23F480739360674B9B68664AD9
:102FE00043F480739360644B1B68634A23F48073DB
:102FF0001360614B1B68604A43F4807313601720B1
:10300000FEF7C0FB01F0A0B907F108035D4A934247
:1030100028D1584B1B69574A23F003031361554BC2
:103020001B69544A43F003031361534B9B68524A94
:1030300023F480739360504B9B684F4A43F4807332
:1030400093604D4B1B684C4A23F4807313604A4BCA
:103050001B68494A43F4807313601720FEF792FB04
:1030600001F072B907F10803474A934228D1414B56
:103070001B69404A23F0040313613E4B1B693D4A20
:1030800043F0040313613C4B9B683B4A23F4807379
:103090009360394B9B68384A43F480739360364B96
:1030A0001B68354A23F480731360334B1B68324A24
:1030B00043F4807313601720FEF764FB01F044B9FA
:1030C00007F10803314A934228D12A4B1B69294A48
:1030D00023F005031361274B1B69264A43F00503C0
:1030E0001361254B9B68244A23F480739360224B21
:1030F0009B68214A43F4807393601F4B1B681E4AF0
:1031000023F4807313601C4B1B681B4A43F48073C9
:1031100013601720FEF736FB01F016B9154B1B693B
:10312000144A23F006031361124B1B69114A43F042
:1031300006031361104B9B680F4A23F4807393605E
:103140000D4B9B680C4A43F4807393600A4B1B68D9
:10315000094A23F480731360074B1B68064A43F443
:10316000807313601720FEF70DFB01F0EDB800BF70
:103170000000024000380140003C014000040240D1
:1031800000080240000C02400010024000140240FF
:1031900007F108039B4A934224D19B4B9A4A1B692F
:1031A0001361994B984A1B691361984B9B68974A26
:1031B00023F400739360954B9B68944A43F4007327
:1031C0009360924B1B68914A23F4007313608F4BFA
:1031D0001B688E4A43F4007313601720FEF7D2FA7F
:1031E00001F0B2B807F10803894A934228D1864B0F
:1031F0001B69854A23F010031361834B1B69824AC4
:1032000043F010031361814B9B68804A23F40073E1
:1032100093607E4B9B687D4A43F4007393607B4BC5
:103220001B687A4A23F400731360784B1B68774A53
:1032300043F4007313601720FEF7A4FA01F084B87A
:1032400007F10803734A934228D16F4B1B696E4AFA
:1032500023F0200313616C4B1B696B4A43F020037E
:1032600013616A4B9B68694A23F400739360674B50
:103270009B68664A43F400739360644B1B68634A1F
:1032800023F400731360614B1B68604A43F40073BE
:1032900013601720FEF776FA01F056B807F108031D
:1032A0005D4A934228D1584B1B69574A23F030039B
:1032B0001361554B1B69544A43F030031361534B60
:1032C0009B68524A23F400739360504B9B684F4AAB
:1032D00043F4007393604D4B1B684C4A23F4007316
:1032E00013604A4B1B68494A43F40073136017206C
:1032F000FEF748FA01F028B807F10803474A93425D
:1033000028D1414B1B69404A23F0400313613E4BD7
:103310001B693D4A43F0400313613C4B9B683B4AA9
:1033200023F400739360394B9B68384A43F400736D
:103330009360364B1B68354A23F400731360334B9C
:103340001B68324A43F4007313601720FEF71AFA21
:1033500000F0FABF07F10803314A934228D12A4B03
:103360001B69294A23F050031361274B1B69264A26
:1033700043F050031361254B9B68244A23F40073E8
:103380009360224B9B68214A43F4007393601F4B68
:103390001B681E4A23F4007313601C4B1B681B4AF6
:1033A00043F4007313601720FEF7ECF900F0CCBF74
:1033B000154B1B69144A23F060031361124B1B6900
:1033C000114A43F060031361104B9B680F4A23F4CA
:1033D000007393600D4B9B680C4A43F40073936039
:1033E0000A4B1B68094A23F400731360074B1B68E0
:1033F000064A43F4007313601720FEF7C3F900F088
:10340000A3BF00BF0000024000380140003C014063
:103410000004024000080240000C0240001002407C
:103420000014024007F108039B4A934224D19B4BAE
:103430009A4A1B691361994B984A1B691361984B0F
:103440009B68974A23F480639360954B9B68944AEA
:1034500043F480639360924B1B68914A23F480632A
:1034600013608F4B1B688E4A43F4806313602820DF
:10347000FEF788F900F068BF07F10803894A934214
:1034800028D1864B1B69854A23F480731361834BD3
:103490001B69824A43F480731361814B9B68804AA5
:1034A00023F4806393607E4B9B687D4A43F4806382
:1034B00093607B4B1B687A4A23F480631360784BDC
:1034C0001B68774A43F4806313602820FEF75AF99B
:1034D00000F03ABF07F10803734A934228D16F4BBB
:1034E0001B696E4A23F4007313616C4B1B696B4AB2
:1034F00043F4007313616A4B9B68694A23F4806349
:103500009360674B9B68664A43F480639360644BA7
:103510001B68634A23F480631360614B1B68604A35
:1035200043F4806313602820FEF72CF900F00CBFF1
:1035300007F108035D4A934228D1584B1B69574A4B
:1035400023F440731361554B1B69544A43F4407391
:103550001361534B9B68524A23F480639360504B32
:103560009B684F4A43F4806393604D4B1B684C4A01
:1035700023F4806313604A4B1B68494A43F4806319
:1035800013602820FEF7FEF800F0DEBE07F1080306
:10359000474A934228D1414B1B69404A23F4806338
:1035A00013613E4B1B693D4A43F4806313613C4BFE
:1035B0009B683B4A23F480639360394B9B68384A8D
:1035C00043F480639360364B1B68354A23F4806371
:1035D0001360334B1B68324A43F480631360282026
:1035E000FEF7D0F800F0B0BE07F10803314A93426D
:1035F00028D12A4B1B69294A23F4A0631361274B66
:103600001B69264A43F4A0631361254B9B68244A37
:1036100023F480639360224B9B68214A43F48063C8
:1036200093601F4B1B681E4A23F4806313601C4B7E
:103630001B681B4A43F4806313602820FEF7A2F83E
:1036400000F082BE154B1B69144A23F4C06313615A
:10365000124B1B69114A43F4C0631361104B9B6802
:103660000F4A23F4806393600D4B9B680C4A43F42C
:10367000806393600A4B1B68094A23F480631360DC
:10368000074B1B68064A43F4806313602820FEF74B
:1036900079F800F059BE00BF000002400038014038
:1036A000003C01400004024000080240000C0240BF
:1036B000001002400014024007F108039B4A9342A5
:1036C00024D19B4B9A4A1B691361994B984A1B69F9
:1036D0001361984B9B68974A23F400639360954B62
:1036E0009B68944A43F400639360924B1B68914A31
:1036F00023F4006313608F4B1B688E4A43F400630E
:1037000013602820FEF73EF800F01EBE07F1080304
:10371000894A934228D1864B1B69854A23F48053FA
:103720001361834B1B69824A43F480531361814BBD
:103730009B68804A23F4006393607E4B9B687D4ABC
:1037400043F4006393607B4B1B687A4A23F4006365
:103750001360784B1B68774A43F40063136028209A
:10376000FEF710F800F0F0BD07F10803734A93422A
:1037700028D16F4B1B696E4A23F4005313616C4BC5
:103780001B696B4A43F4005313616A4B9B68694A97
:1037900023F400639360674B9B68664A43F40063BD
:1037A0009360644B1B68634A23F400631360614BAE
:1037B0001B68604A43F4006313602820FDF7E2FFB2
:1037C00000F0C2BD07F108035D4A934228D1584B6F
:1037D0001B69574A23F440531361554B1B69544AE4
:1037E00043F440531361534B9B68524A23F40063E4
:1037F0009360504B9B684F4A43F4006393604D4B7A
:103800001B684C4A23F4006313604A4B1B68494A07
:1038100043F4006313602820FDF7B4FF00F094BD6B
:1038200007F10803474A934228D1414B1B69404A9C
:1038300023F4804313613E4B1B693D4A43F48043AC
:1038400013613C4B9B683B4A23F400639360394B04
:103850009B68384A43F400639360364B1B68354AD3
:1038600023F400631360334B1B68324A43F4006354
:1038700013602820FDF786FF00F066BD07F10803FE
:10388000314A934228D12A4B1B69294A23F4A04389
:103890001361274B1B69264A43F4A0431361254B50
:1038A0009B68244A23F400639360224B9B68214A5F
:1038B00043F4006393601F4B1B681E4A23F40063AC
:1038C00013601C4B1B681B4A43F4006313602820E1
:1038D000FDF758FF00F038BD154B1B69144A23F45F
:1038E000C0431361124B1B69114A43F4C043136177
:1038F000104B9B680F4A23F4006393600D4B9B6849
:103900000C4A43F4006393600A4B1B68094A23F492
:1039100000631360074B1B68064A43F4006313609F
:103920002820FDF72FFF00F00FBD00BF0000024070
:1039300000380140003C0140000402400008024001
:10394000000C0240001002400014024007F108037E
:103950009A4A934224D19A4B994A5B695361984B96
:10396000974A5B695361974B9B68964A23F480534F
:103970009360944B9B68934A43F480539360914BBC
:103980001B68904A23F4805313608E4B1B688D4A4A
:1039900043F4805313602820FDF7F4FE00F0D4BCFC
:1039A00007F10803884A934228D1854B5B69844A12
:1039B00023F001035361824B5B69814A43F00103A9
:1039C0005361804B9B687F4A23F4805393607D4B07
:1039D0009B687C4A43F4805393607A4B1B68794A16
:1039E00023F480531360774B1B68764A43F480536B
:1039F00013602820FDF7C6FE00F0A6BC07F10803FF
:103A0000724A934228D16E4B5B696D4A23F00203E0
:103A100053616B4B5B696A4A43F002035361694B24
:103A20009B68684A23F480539360664B9B68654AA1
:103A300043F480539360634B1B68624A23F48053C2
:103A40001360604B1B685F4A43F480531360282067
:103A5000FDF798FE00F078BC07F108035C4A93423A
:103A600028D1574B5B69564A23F003035361544BEB
:103A70005B69534A43F003035361524B9B68514ABD
:103A800023F4805393604F4B9B684E4A43F480531A
:103A900093604C4B1B684B4A23F480531360494B93
:103AA0001B68484A43F4805313602820FDF76AFEE0
:103AB00000F04ABC07F10803464A934228D1404B24
:103AC0005B693F4A23F0040353613D4B5B693C4A09
:103AD00043F0040353613B4B9B683A4A23F4805301
:103AE0009360384B9B68374A43F480539360354B5F
:103AF0001B68344A23F480531360324B1B68314AED
:103B000043F4805313602820FDF73CFE00F01CBCFA
:103B100007F10803304A934227D1294B5B69284AB1
:103B200023F005035361264B5B69254A43F00503E7
:103B30005361244B9B68234A23F480539360214BA9
:103B40009B68204A43F4805393601E4B1B681D4AB8
:103B500023F4805313601B4B1B681A4A43F48053B1
:103B600013602820FDF70EFEEEE3154B5B69144A47
:103B700023F006035361124B5B69114A43F00603BD
:103B80005361104B9B680F4A23F4805393600D4B95
:103B90009B680C4A43F4805393600A4B1B68094AA4
:103BA00023F480531360074B1B68064A43F4805389
:103BB00013602820FDF7E6FDC6E300BF00000240C9
:103BC00000380140003C014000040240000802406F
:103BD000000C0240001002400014024007F10803EC
:103BE000974A934223D1974B964A5B695361954B11
:103BF000944A5B695361944B9B68934A23F4005346
:103C00009360914B9B68904A43F4005393608E4BB2
:103C10001B688D4A23F4005313608B4B1B688A4A40
:103C200043F4005313602820FDF7ACFD8CE307F14B
:103C30000803864A934227D1824B5B69814A23F06D
:103C4000100353617F4B5B697E4A43F0100353615D
:103C50007D4B9B687C4A23F4005393607A4B9B68AE
:103C6000794A43F400539360774B1B68764A23F4F8
:103C700000531360744B1B68734A43F40053136082
:103C80002820FDF77FFD5FE307F10803704A9342A8
:103C900027D16C4B5B696B4A23F020035361694B5E
:103CA0005B69684A43F020035361674B9B68664A2F
:103CB00023F400539360644B9B68634A43F40053BE
:103CC0009360614B1B68604A23F4005313605E4BA2
:103CD0001B685D4A43F4005313602820FDF752FD32
:103CE00032E307F108035B4A934227D1554B5B69E6
:103CF000544A23F030035361524B5B69514A43F0FD
:103D000030035361504B9B684F4A23F40053936038
:103D10004D4B9B684C4A43F4005393604A4B1B68DD
:103D2000494A23F400531360474B1B68464A43F447
:103D3000005313602820FDF725FD05E307F1080374
:103D4000454A934227D13F4B5B693E4A23F04003EB
:103D500053613C4B5B693B4A43F0400353613A4B30
:103D60009B68394A23F400539360374B9B68364A6B
:103D700043F400539360344B1B68334A23F40053DD
:103D80001360314B1B68304A43F400531360282002
:103D9000FDF7F8FCD8E207F10803304A934227D137
:103DA000284B5B69274A23F050035361254B5B691D
:103DB000244A43F050035361234B9B68224A23F467
:103DC00000539360204B9B681F4A43F40053936059
:103DD0001D4B1B681C4A23F4005313601A4B1B68CD
:103DE000194A43F4005313602820FDF7CBFCABE2E3
:103DF000144B5B69134A23F060035361114B5B69F9
:103E0000104A43F0600353610F4B9B680E4A23F442
:103E1000005393600C4B9B680B4A43F40053936030
:103E2000094B1B68084A23F400531360064B1B68B8
:103E3000054A43F4005313602820FDF7A3FC83E2F6
:103E40000000024000380140003C014000040240F4
:103E500000080240000C0240001002400014024022
:103E600007F10803974A934223D1974B964A5B691F
:103E70005361954B944A5B695361944B9B68934A99
:103E800023F480439360914B9B68904A43F48043B2
:103E900093608E4B1B688D4A23F4804313608B4BD9
:103EA0001B688A4A43F4804313602820FDF76AFCAC
:103EB0004AE207F10803864A934227D1824B5B69A5
:103EC000814A23F4807353617F4B5B697E4A43F4DC
:103ED000807353617D4B9B687C4A23F480439360DD
:103EE0007A4B9B68794A43F480439360774B1B6815
:103EF000764A23F480431360744B1B68734A43F47F
:103F0000804313602820FDF73DFC1DE207F1080304
:103F1000704A934227D16C4B5B696B4A23F4007360
:103F20005361694B5B69684A43F400735361674BA3
:103F30009B68664A23F480439360644B9B68634AA2
:103F400043F480439360614B1B68604A23F48043D1
:103F500013605E4B1B685D4A43F480431360282066
:103F6000FDF710FCF0E107F108035B4A934227D10B
:103F7000554B5B69544A23F440735361524B5B6960
:103F8000514A43F440735361504B9B684F4A23F4AA
:103F9000804393604D4B9B684C4A43F4804393604D
:103FA0004A4B1B68494A23F480431360474B1B6804
:103FB000464A43F4804313602820FDF7E3FBC3E146
:103FC00007F10803454A934227D13F4B5B693E4ABC
:103FD00023F4806353613C4B5B693B4A43F4806349
:103FE00053613A4B9B68394A23F480439360374BC3
:103FF0009B68364A43F480439360344B1B68334AD2
:1040000023F480431360314B1B68304A43F48043F0
:1040100013602820FDF7B6FB96E107F10803304A4C
:10402000934227D1284B5B69274A23F4A06353614D
:10403000254B5B69244A43F4A0635361234B9B687F
:10404000224A23F480439360204B9B681F4A43F429
:10405000804393601D4B1B681C4A23F4804313600C
:104060001A4B1B68194A43F4804313602820FDF75C
:1040700089FB69E1144B5B69134A23F4C063536104
:10408000114B5B69104A43F4C06353610F4B9B684B
:104090000E4A23F4804393600C4B9B680B4A43F415
:1040A00080439360094B1B68084A23F480431360E4
:1040B000064B1B68054A43F4804313602820FDF734
:1040C00061FB41E10000024000380140003C01403A
:1040D0000004024000080240000C024000100240B0
:1040E0000014024007F10803994A934223D1994BE7
:1040F000984A5B695361974B964A5B695361964B4B
:104100009B68954A23F400439360934B9B68924AC3
:1041100043F400439360904B1B688F4A23F40043A1
:1041200013608D4B1B688C4A43F4004313602820B6
:10413000FDF728FB07E107F10803884A934227D1DE
:10414000844B5B69834A23F480535361814B5B69E1
:10415000804A43F4805353617F4B9B687E4A23F42B
:10416000004393607C4B9B687B4A43F4004393601D
:10417000794B1B68784A23F400431360764B1B6825
:10418000754A43F4004313602820FDF7FBFADAE098
:1041900007F10803724A934227D16E4B5B696D4A5F
:1041A00023F4005353616B4B5B696A4A43F4005339
:1041B0005361694B9B68684A23F400439360664BE4
:1041C0009B68654A43F400439360634B1B68624AF3
:1041D00023F400431360604B1B685F4A43F40043C1
:1041E00013602820FDF7CEFAADE007F108035D4A21
:1041F000934227D1574B5B69564A23F4405353618E
:10420000544B5B69534A43F440535361524B9B6890
:10421000514A23F4004393604F4B9B684E4A43F44A
:10422000004393604C4B1B684B4A23F400431360DC
:10423000494B1B68484A43F4004313602820FDF7AC
:10424000A1FA80E007F10803474A934227D1414B86
:104250005B69404A23F4804353613E4B5B693D4AAE
:1042600043F4804353613C4B9B683B4A23F4004337
:104270009360394B9B68384A43F400439360364B54
:104280001B68354A23F400431360334B1B68324AE2
:1042900043F4004313602820FDF774FA53E007F15C
:1042A0000803324A934227D12A4B5B69294A23F4F7
:1042B000A0435361274B5B69264A43F4A0435361F3
:1042C000254B9B68244A23F400439360224B9B6850
:1042D000214A43F4004393601F4B1B681E4A23F49A
:1042E000004313601C4B1B681B4A43F400431360DC
:1042F0002820FDF747FA26E0164B5B69154A23F4A0
:10430000C0435361134B5B69124A43F4C04353618A
:10431000114B9B68104A23F4004393600E4B9B683B
:104320000D4A43F4004393600B4B1B680A4A23F485
:1043300000431360084B1B68074A43F400431360B3
:104340002820FDF71FFA00BF00BF1037BD4680BD13
:104350000000024000380140003C014000040240DF
:1043600000080240000C024000100240001402400D
:1043700080B586B002AFF860B9607A603B60F868DB
:104380003B6801937B6800930023274A012102F0D8
:1043900079F9FB68254ADA60FB68254A9A60FB6870
:1043A000244A1A61FB68244A5A61FB68234A9A61CD
:1043B000FB68234ADA610021F86800F046F9E6223A
:1043C0000721F86800F02FFA67220821F86800F04A
:1043D0002AFA80220121F86800F025FA3B7E9B0131
:1043E0005AB297F82030DB005BB213435BB2DBB20A
:1043F0001A461D21F86800F016FA94221E21F8686A
:1044000000F011FA20222221F86800F00CFA202294
:104410002321F86800F007FA0521F86800F015F983
:1044200000BF1037BD4680BD003C0040C1460008BB
:1044300087460008D9460008474700088F4700080C
:1044400007480008B0B495B000AFF8607A603B60F0
:104450000B46FB727B684433BB627B6848337B62EC
:104460007B684C333B623B682C33FB613B6E2C33E7
:10447000BB617B6E2C337B61BB6E2C333B610023B5
:1044800087F84F30FB7A87F82C3097F84F30043399
:1044900087F84F3097F84F3007F12C02134401335F
:1044A000BA6A1A6097F84F30043387F84F3097F89C
:1044B0004F3007F12C02134401337A6A1A6097F8DF
:1044C0004F30043387F84F3097F84F3007F12C0204
:1044D000134401333A6A1A6097F84F30043387F86F
:1044E0004F3097F84F3007F12C0213440133FA692B
:1044F0001A6097F84F30043387F84F3097F84F30F1
:1045000007F12C0213440133BA691A6097F84F304F
:10451000043387F84F3097F84F3007F12C021344DB
:1045200001337A691A6097F84F30043387F84F30B7
:1045300097F84F3007F12C02134401333A691A609F
:1045400097F84F30023387F84F3097F84F3007F124
:104550002C0213440133B7F86C20128892B21A80EF
:10456000FB681D4607F12C040FCC28606960AA6027
:10457000EB600FCC28616961AA61EB61F868543780
:10458000BD46B0BC7047B0B491B000AFF8607A607F
:104590003B600B46FB72002387F83F307B68343367
:1045A000BB617B6834337B613B6824333B61FB7ABE
:1045B0003B7797F83F30043387F83F3097F83F3028
:1045C00040333B4413F8233C1A46BB69136097F809
:1045D0003F30043387F83F3097F83F3040333B4457
:1045E00013F8233C1A467B69136097F83F30043375
:1045F00087F83F3097F83F3040333B4413F8233C73
:104600001A463B69136097F83F30023387F83F3012
:1046100097F83F3040333B4413F8233C1A46B7F831
:1046200050301380FB681D4607F11C040FCC286036
:104630006960AA60EB600FCC28616961AA61EB61D7
:10464000F8684437BD46B0BC704780B584B000AF51
:1046500078600B46FB700121786800F018F903467A
:10466000FB73FB7B23F00703FB73FA7BFB7813439D
:10467000FB73FB7B1A460121786800F0D4F800BF79
:104680001037BD4680BD80B584B000AF78600B4662
:10469000FB700921786800F0FAF80346FB73FB7B96
:1046A00003F07F03FB73FB7B63F07F03DBB21A46EF
:1046B0000921786800F0B7F800BF1037BD4680BD0B
:1046C00080B582B000AF786001217868FFF7BDFF48
:1046D00000BF0837BD4680BD80B584B000AF7860AC
:1046E000396001217868FFF7B0FF402240217868E7
:1046F00000F099F808221221786800F094F800225E
:104700000D21786800F08FF80023FB600BE0FB6858
:104710003A6813441B781A460021786800F083F841
:10472000FB680133FB60FB681F2BF0DD7B68032215
:104730001A717B681B7919467868FFF786FF00BFFE
:104740001037BD4680BD80B582B000AF78600121D2
:104750007868FFF77AFF00224021786800F063F85C
:1047600040221221786800F05EF800220D2178685E
:1047700000F059F87B6805221A717B681B7919468D
:104780007868FFF762FF00BF0837BD4680BD90B56F
:1047900087B000AFF860B9601346FB714022122168
:1047A000F86800F040F81321F86800F070F803464C
:1047B000FB741021F86800F06AF80346BB74FA7CB9
:1047C000FB799A4201D9002319E0BB7C1A460D21DE
:1047D000F86800F028F800237B610BE07B69BA6879
:1047E000D4180021F86800F052F8034623707B6962
:1047F00001337B61FB7C7A699A42EFDB0123184627
:104800001C37BD4690BD80B582B000AF78600B46C6
:10481000FB70FB781A461221786800F004F800BF9C
:104820000837BD4680BD80B584B000AF78600B46C8
:10483000FB701346BB707B681B68FB60FB689B6862
:104840005969FB68DB68DA43FB689B680A405A6178
:10485000FB7863F07F03FB72FB689B69FA7A92B284
:104860001146F8689847FB689B69BA7892B211467E
:10487000F8689847FB689B685969FB68DA68FB68C9
:104880009B680A435A6100BF1037BD4680BD80B5A2
:1048900086B000AF78600B46FB700023FB757B6829
:1048A0001B683B613B699B6859693B69DB68DA437C
:1048B0003B699B680A405A61FB7803F07F03FB73F6
:1048C0003B699B69FA7B92B2114638699847034667
:1048D000FB753B699B69FF21386998470346FB7567
:1048E0003B699B6859693B69DA683B699B680A4385
:1048F0005A61FB7D18461837BD4680BD80B483B031
:1049000000AF0346FB7197F90730002B0BDBFB79F7
:1049100003F01F02074997F907305B09012000FAED
:1049200002F241F8232000BF0C37BD465DF8047B3E
:10493000704700BF00E100E080B483B000AF0346E1
:10494000FB7197F90730002B12DBFB7903F01F0294
:104950000A4997F907305B09012000FA02F2203377
:1049600041F82320BFF34F8F00BFBFF36F8F00BF0D
:1049700000BF0C37BD465DF8047B704700E100E0E6
:1049800080B483B000AF03463960FB7197F90730FC
:10499000002B0ADB3B68DAB20C4997F907301201A9
:1049A000D2B20B4483F800230AE03B68DAB208492C
:1049B000FB7903F00F03043B1201D2B20B441A76C9
:1049C00000BF0C37BD465DF8047B704700E100E096
:1049D00000ED00E00000000080B584B004AF01F0FD
:1049E000A5FF01F00DF8FCF71BFEFCF741FEFCF7FC
:1049F00067FE01F075F8FCF7DDFBFCF7B3FCFCF794
:104A000077FDFCF73BFB072302930023019301236F
:104A1000009300230022B249B248FCF767FF172039
:104A2000FFF78AFF032302930023019301230093DE
:104A300000230022AC49AD48FCF758FF0B210A20A7
:104A4000FFF79EFF012302930223019301230093AA
:104A500000230022A649A748FCF748FFA54B9B6806
:104A60005A69A44B9B6842F002025A610821072050
:104A7000FFF786FF00230293022301930123009393
:104A8000002301229C499D48FCF79AFE01230293D2
:104A900002230193012300930023012296499848A1
:104AA000FCF78EFE07230293022301930123009358
:104AB000002301228C499348FCF782FE08230293CD
:104AC00002230193012300930023012286498E488B
:104AD000FCF776FE05230293022301930123009342
:104AE0000023012284498948FCF76AFE06230293C9
:104AF0000223019301230093002301227E4984486D
:104B0000FCF75EFE0F23029302230193012300931F
:104B1000002300227F498048FCF752FE0E230293B7
:104B200002230193012300930023002279497B484B
:104B3000FCF746FE0D230293022301930123009309
:104B40000023002273497648FCF73AFE0C230293B7
:104B50000223019301230093002300226D49714831
:104B6000FCF72EFE0B2302930223019301230093F3
:104B70000023002267496C48FCF722FE00230293C1
:104B80000223019301230093002300225849674820
:104B9000FCF716FE052302930223019301230093E1
:104BA0000023002262496348FCF70AFE04230293B3
:104BB0000223019301230093002300225C495E48F5
:104BC000FCF7FEFD0F2302930223019301230093C0
:104BD0000023012242495948FCF7F2FD0E230293BB
:104BE0000223019301230093002301223C495448EE
:104BF000FCF7E6FD032302930223019301230093B4
:104C0000002301223C494F48FCF7DAFD02230293BE
:104C100002230193012300930023002236494A48CE
:104C2000FCF7CEFD09230293022301930123009395
:104C3000002301222E494548FCF7C2FD0C230293B4
:104C400002230193012300930023012228494048B5
:104C5000FCF7B6FD0F230293022301930123009377
:104C60000023002222493B48FCF7AAFD0D230293B2
:104C70000223019301230093002301221C4936489B
:104C8000FCF79EFD0E230293022301930123009360
:104C90000023012216493148FCF792FD0B230293B1
:104CA00002230193012300930023002210492C4882
:104CB000FCF786FD0923029302230193012300934D
:104CC0000023012206492748FCF77AFD0A230293B4
:104CD000022301930123009300230122004943E0B2
:104CE000000C02404C020020001002406402002030
:104CF000000402407404002000180240B4030020A5
:104D0000CC030020E4030020FC0300201404002056
:104D10002C04002000140240440400205C04002005
:104D20008C040020A4040020BC040020D404002033
:104D300000080240EC040020040500205403002079
:104D40006C030020840300209C0300207C020020D0
:104D500094020020AC020020C4020020DC020020EB
:104D6000F40200200C0300209D48FCF729FD0D23D0
:104D70000293022301930123009300230122994906
:104D80009948FCF71DFD0123029309230193022397
:104D900000934FF40063954A95499648FFF7E8FA67
:104DA000482300930123944A9449954801F03EFB1F
:104DB00060230293012301930323009300238E4A6F
:104DC0008E49904801F0FCF961230293012301937D
:104DD000032300930023884A88498B4801F0F0F9A7
:104DE0006223029301230193032300930023824A49
:104DF0008249864801F0E4F9632302930123019379
:104E00000323009300237C4A7C49814801F0D8F9B0
:104E10000423804A0021804801F08EF81023734A51
:104E200001217E4801F088F8FCF766FC7C4B1B787A
:104E30000F2B27DC002BF9DB0F2BF7D801A252F840
:104E400023F000BF8D4E00086D520008E1520008AB
:104E5000775300089B5300082D4E00082D4E000884
:104E600061570008FF57000865580008BD58000842
:104E7000255900082D4E00082D4E00082D4E000823
:104E8000E5540008802B00F07585CFE7654A602166
:104E90005C4801F0DFF95B4801F006FA614A6121E4
:104EA000594801F0D7F9584801F0FEF95D4A6221EE
:104EB000564801F0CFF9554801F0F6F9594A6321F7
:104EC000534801F0C7F9524801F0EEF94D4BD3EDCC
:104ED0000B7A9FED557AF4EEC77AF1EE10FA0ADDFF
:104EE0004F4B0A221A70514B1B8843F400639AB24D
:104EF0004E4B1A80AFE0444BD3ED0B7A9FED4A7ACC
:104F0000F4EEC77AF1EE10FA0ADD454B0A221A7068
:104F1000464B1B8843F480639AB2444B1A809AE054
:104F20003A4BD3ED0B7A9FED407AF4EEC77AF1EE6F
:104F300010FA0ADD3A4B0A221A703C4B1B8843F4E4
:104F400000739AB2394B1A8085E0314BD3ED0B7A5E
:104F50009FED357AF4EEC77AF1EE10FA0ADD304BA8
:104F60000A221A70314B1B8843F480739AB22F4B7C
:104F70001A8070E0234BD3ED0B7A9FED2D7AF4EE7F
:104F8000C77AF1EE10FA07DB284B1B8843F4006365
:104F90009AB2264B1A805EE01B4BD3ED0B7A9FED45
:104FA000247AF4EEC77AF1EE10FA07DB1F4B1B8868
:104FB00043F480639AB21D4B1A804CE0134BD3ED3F
:104FC0000B7A9FED1B7AF4EEC77AF1EE10FA31DB23
:104FD000164B1B8843F400739AB2144B1A803AE0C4
:104FE00024030020000C02403C0300200018024073
:104FF00034750008380000200014024000540040BE
:1050000078000020AC000020E800002024010020EF
:1050100060010020000002409C010020F4010020FB
:105020002800002034000020000018422C0000203E
:1050300000000C429E4BD3ED0B7A9FED9E7AF4EE6E
:10504000C77AF1EE10FA06DB9B4B1B8843F48073A2
:105050009AB2994B1A80994800F096FF974801F050
:105060000FF8964BD3ED117A9FED957AF4EEC77A4F
:10507000F1EE10FA0ADB934B0A221A708E4B1B8852
:1050800043F080039AB28C4B1A8085E08B4BD3EDB2
:10509000127A9FED8B7AF4EEC77AF1EE10FA0ADB02
:1050A000884B0A221A70844B1B8843F040039AB243
:1050B000814B1A8070E0814BD3ED137A9FED807A9B
:1050C000F4EEC77AF1EE10FA0ADB7E4B0A221A7070
:1050D000794B1B8843F020039AB2774B1A805BE030
:1050E000764BD3ED147A9FED767AF4EEC77AF1EE33
:1050F00010FA0ADB734B0A221A706F4B1B8843F0BD
:1051000010039AB26C4B1A8046E06C4BD3ED117AC7
:105110009FED6D7AF4EEC77AF1EE10FA07DB664B7D
:105120001B8843F008039AB2634B1A8034E0634B48
:10513000D3ED127A9FED647AF4EEC77AF1EE10FAAD
:1051400007DB5D4B1B8843F004039AB25A4B1A806D
:1051500022E05A4BD3ED137A9FED5B7AF4EEC77AD7
:10516000F1EE10FA07DB544B1B8843F002039AB2AE
:10517000514B1A8010E0514BD3ED147A9FED527AC7
:10518000F4EEC77AF1EE10FA06DB4B4B1B8843F0C6
:1051900001039AB2484B1A804C4800F0F5FE4B4888
:1051A00000F06EFF494B5B6B1846FBF7AFFA3EA36E
:1051B000D3E90023FBF762FB0346002B07D03E4BED
:1051C0001B8843F080039AB23B4B1A803DE03F4B73
:1051D0009B6B1846FBF79AFA33A3D3E90023FBF73E
:1051E0004DFB0346002B07D0334B1B8843F0400395
:1051F0009AB2314B1A8028E0344BDB6B1846FBF730
:1052000085FA29A3D3E90023FBF738FB0346002BDB
:1052100007D0294B1B8843F020039AB2264B1A80F3
:1052200013E02A4B1B6C1846FBF770FA1EA3D3E958
:105230000023FBF723FB0346002B06D01E4B1B88E5
:1052400043F010039AB21C4B1A804822204921488F
:1052500001F02EF91F4801F04BF91A4B1B780A2B6D
:1052600000F0A883174B01221A70A6E31A4B9B6823
:105270001B6903F48043002B09D1184B9A68174B24
:105280009B6852695A610F4B03221A7095E3134BC6
:105290009B685A69114B9B6842F480425A61094BE2
:1052A00002221A7089E300BF666666666666104071
:1052B0006001002000000C422C000020F4010020BE
:1052C0000000884228000020000082429C0100204B
:1052D00034000020780000205C040020CC03002073
:1052E000884B884A1B68136000BF874B1B6903F01B
:1052F0000103002BF9D0834B1B69824A23F0010381
:1053000013611720FFF718FB1920FFF715FB7F4BE0
:105310009B681B697E4B9B681B697E4B9B681B6966
:105320007D4B9B681B697D4B9B681B697C4B9B6815
:105330001B69DBB2DB00DBB203F00803DAB2794BA6
:105340009B681B69DBB29B00DBB223F07F03DBB2FF
:105350001344DAB2744B9B681B69DBB25B00DBB2AF
:1053600003F02003DBB21344DAB2704B1A70704BB7
:105370000F221A7021E31720FFF7C0FA0921172026
:10538000FFF7FEFA1920FFF7B9FA0A211920FFF7F3
:10539000F7FA674B04221A700FE3664B1B7803F091
:1053A0000103002B03D1624B0A221A7005E3614B03
:1053B0001B785BB2002B03DA5D4B0A221A70FCE209
:1053C0005C4B1B7803F00203002B4BD1594B1B782D
:1053D00003F00403002B03D1554B09221A70ECE2B1
:1053E000554B9A68544B9B6852695A61534B9A6863
:1053F000524B9B6852695A61514B9A68504B9B685B
:1054000052695A614F4B9A684E4B9B6852695A6178
:105410004D4B9A684C4B9B6852695A614B4B9A684A
:105420004A4B9B6852695A61494B9B685A69484B81
:105430009B6842F400425A61464B9B685A69454B4F
:105440009B6842F008025A613A4B1B7803F008034C
:10545000002B03D1364B09221A70AEE2344B802266
:105460001A70AAE2334B1B7803F02003002B01D003
:1054700000BF37E02F4B1B7803F04003002B13D005
:105480002C4B1B7803F01003002B0DD1294B1B78FC
:1054900003F00203002B03D0254B08221A708CE284
:1054A000234B0B221A7088E2224B1B7803F0100367
:1054B000002B13D01F4B1B7803F04003002B0DD0A3
:1054C0001C4B1B7803F00203002B03D0184B072260
:1054D0001A7072E2164B0B221A706EE2144B002205
:1054E0001A706AE2114B1B7803F40043002B35D18C
:1054F000194B9A68184B9B6852695A610C4B0A22E7
:105500001A705AE2000001400010004074040020AC
:105510008C040020A4040020BC04002044040020CB
:10552000D4040020EC040020040500202A00002000
:105530002800002029000020240300200C03002064
:10554000140400202C040020DC020020C4020020EF
:105550005403002084030020B40300208A4B1B78EE
:1055600003F40063002B6DD0874B1B7803F40053CA
:10557000002B67D1844B1B7803F48053002B61D13F
:10558000814B1B7803F00103002B5BD17E4B1B7812
:1055900003F02003002B55D17C4B1B78012B06D147
:1055A0007B4B00221A70794B00221A7005E200BF73
:1055B000784B9B685A69774B9B6842F001025A61AD
:1055C000754B9A68744B9B6852695A61734B9A6821
:1055D000724B9B6852695A61714B9A68704B9B6819
:1055E00052695A616F4B9A686E4B9B6852695A6157
:1055F0006D4B9A686C4B9B6852695A616B4B9A6809
:105600006A4B9B6852695A61694B9B685A69684B3F
:105610009B6842F400425A61664B9B685A69654B2D
:105620009B6842F008025A61574B1B7803F0100345
:10563000002B03D0564BF0221A70BEE1544B0922C6
:105640001A70BAE1504B1B7803F40053002B21D0A1
:105650004D4B1B7803F48053002B1BD04B4B1B7816
:10566000012B06D14A4B00221A70484B00221A70B7
:10567000A3E100BF4B4B9A684A4B9B6852695A6141
:10568000474B9A68464B9B6852695A61404B0A22C5
:105690001A7092E13C4B1B7803F40053002B2AD084
:1056A000394B1B7803F48053002B24D1374B1B78E4
:1056B000012B06D1364B00221A70344B00221A708F
:1056C0007BE100BF364B9B685A69354B9B6842F0C3
:1056D00020025A612C4B1B7803F00103002B03D0EE
:1056E0002B4B07221A7068E12D4B9A682C4B9B6854
:1056F00052695A6134E0244B1B7803F48053002B29
:105700002AD0214B1B7803F40053002B24D11F4BCC
:105710001B78012B06D11E4B00221A701B4B002256
:105720001A704AE100BF1F4B9B685A691D4B9B686A
:1057300042F040025A61144B1B7803F02003002B07
:1057400003D0134B08221A7037E1164B9A68154B99
:105750009B6852695A6103E00D4B00221A702CE1DC
:10576000154B9B681B69B3F5005F29D00C4B9A68F9
:105770000B4B9B6852695A61104B4FF480421A8060
:10578000034B00221A7018E12A0000202F0000208D
:1057900028000020B4030020240300200C03002074
:1057A000140400202C040020DC020020C40200208D
:1057B00054030020840300203C0300202C00002020
:1057C0007F4B00221A807F4B9B685A697D4B9B68F8
:1057D00042F020025A617C4B9B685A697A4B9B6865
:1057E00042F480625A61794B9B685A69774B9B6897
:1057F00042F400725A61764B00221A70DDE0754B5C
:105800009B681B69B3F5006F0DD0734B9A68724BA0
:105810009B6852695A616A4B4FF400521A806C4B74
:1058200000221A70C9E0664B00221A806A4B9B68FE
:105830005A69694B9B6842F040025A61674B9B680A
:105840005A69664B9B6842F480425A61644B9B687C
:105850005A69634B9B6842F400525A615C4B0022C8
:105860001A70AAE05F4B9A685E4B9B6852695A6156
:105870005D4B9A685C4B9B6852695A615B4B9A68B6
:105880005A4B9B6852695A61594B9A68584B9B68AE
:1058900052695A61574B9B685A69564B9B6842F450
:1058A00000725A61544B9B685A69534B9B6842F48F
:1058B00080525A61464B00221A707EE0424B9A6831
:1058C000414B9B6852695A61404B9A683F4B9B68B9
:1058D00052695A613B4B9A683A4B9B6852695A61CC
:1058E0003D4B9A683C4B9B6852695A613B4B9A68A6
:1058F0003A4B9B6852695A61394B9A68384B9B689E
:1059000052695A613C4B9A683B4B9B6852695A6199
:10591000384B9A68374B9B6852695A612C4B00226E
:105920001A704AE0284B9A68274B9B6852695A6163
:10593000264B9A68254B9B6852695A61214B9A689D
:10594000204B9B6852695A61234B9A68224B9B6893
:1059500052695A61214B9A68204B9B6852695A617F
:105960001F4B9A681E4B9B6852695A61184B002264
:105970001A7022E072B600BF1C4B9B685A691B4B21
:105980009B6842F480425A61114B00221A701E201B
:1059900000F05DFE154B9A68144B9B6852695A6182
:1059A000164B1B7843F00803DAB2144B1A7062B638
:1059B00000BF02E000BFFFF739BAFFF737BA00BFF8
:1059C0002C00002014040020240300200C030020DD
:1059D00028000020F40200202C040020DC0200201B
:1059E000C402002054030020840300206C03002024
:1059F0009C0300207C02002094020020290000204B
:105A000080B594B000AF07F1200330220021184682
:105A100001F058FD07F10C0300221A605A609A60E9
:105A2000DA601A610023BB602B4B1B6C2A4A43F0DF
:105A300080531364284B1B6C03F08053BB60BB681E
:105A400000237B60254B1B68244A43F440431360CA
:105A5000224B1B6803F440437B607B6802233B625C
:105A60000123FB6210233B630223BB630023FB6320
:105A700008233B64B4237B640223BB640423FB64DC
:105A800007F12003184601F0F9F80346002B01D076
:105A900000F04CFA01F0A2F80346002B01D000F010
:105AA00045FA0F23FB6002233B6100237B614FF427
:105AB000A053BB614FF48053FB6107F10C03052138
:105AC000184601F053FB0346002B01D000F02EFADC
:105AD00000BF5037BD4680BD003802400070004016
