:020000040800F2
:1000000000000320652B00083D2B00083F2B000853
:10001000412B0008432B0008452B0008000000007E
:10002000000000000000000000000000472B000856
:10003000492B0008000000004B2B00084D2B000846
:10004000B52B0008B52B0008B52B0008B52B000810
:10005000B52B0008B52B0008B52B0008C50E00080D
:10006000B52B0008050F0008B52B0008B52B0008BC
:10007000B52B0008B52B0008B52B0008B52B0008E0
:10008000B52B0008B52B0008B52B0008B52B0008D0
:10009000B52B0008B52B0008B52B00081D0F000874
:1000A000B52B00080D0E0008B52B0008B52B000875
:1000B000B52B0008B52B0008B52B0008B52B0008A0
:1000C000B52B0008B52B0008B52B0008B52B000890
:1000D000B52B0008B52B0008B52B0008B52B000880
:1000E000B52B0008B52B0008B52B0008B52B000870
:1000F000B52B0008B52B0008B52B0008B52B000860
:10010000B52B0008B52B0008B52B0008B52B00084F
:10011000B52B0008B52B0008B52B0008B52B00083F
:10012000B52B0008B52B0008B52B0008B52B00082F
:10013000B52B0008B52B0008B52B0008B52B00081F
:10014000B52B0008B52B0008B52B0008B52B00080F
:10015000B52B0008B52B0008B52B0008B52B0008FF
:10016000B52B0008B52B0008B52B0008B52B0008EF
:10017000B52B0008B52B0008B52B0008B52B0008DF
:10018000B52B0008B52B0008B52B0008B52B0008CF
:10019000B52B0008B52B0008B52B0008B52B0008BF
:0C01A000B52B0008B52B0008B52B00089B
:1001B00010B5054C237833B9044B13B10448AFF3A1
:1001C00000800123237010BD4000002000000000CB
:1001D0004C41000808B5034B1BB103490348AFF37A
:1001E000008008BD00000000440000204C410008D1
:1001F00081F0004102E000BF83F0004330B54FEAD8
:1002000041044FEA430594EA050F08BF90EA020F44
:100210001FBF54EA000C55EA020C7FEA645C7FEAD7
:10022000655C00F0E2804FEA5454D4EB5555B8BFFA
:100230006D420CDD2C4480EA020281EA030382EA6B
:10024000000083EA010180EA020281EA0303362DFD
:1002500088BF30BD11F0004F4FEA01314FF4801CD0
:100260004CEA113102D0404261EB410113F0004FE2
:100270004FEA03334CEA133302D0524263EB430399
:1002800094EA050F00F0A780A4F10104D5F1200E37
:100290000DDB02FA0EFC22FA05F2801841F1000192
:1002A00003FA0EF2801843FA05F359410EE0A5F166
:1002B00020050EF1200E012A03FA0EFC28BF4CF097
:1002C000020C43FA05F3C01851EBE37101F000454D
:1002D00007D54FF0000EDCF1000C7EEB00006EEB5A
:1002E0000101B1F5801F1BD3B1F5001F0CD34908E4
:1002F0005FEA30004FEA3C0C04F101044FEA44523B
:1003000012F5800F80F09A80BCF1004F08BF5FEAC1
:10031000500C50F1000041EB045141EA050130BDA1
:100320005FEA4C0C404141EB0101013C28BFB1F5B3
:10033000801FE9D291F0000F04BF01460020B1FAFE
:1003400081F308BF2033A3F10B03B3F120020CDAD1
:100350000C3208DD02F1140CC2F10C0201FA0CF0AF
:1003600021FA02F10CE002F11402D8BFC2F1200C14
:1003700001FA02F120FA0CFCDCBF41EA0C019040CA
:10038000E41AA2BF01EB0451294330BD6FEA040413
:100390001F3C1CDA0C340EDC04F11404C4F12002FE
:1003A00020FA04F001FA02F340EA030021FA04F310
:1003B00045EA030130BDC4F10C04C4F1200220FA67
:1003C00002F001FA04F340EA0300294630BD21FAA5
:1003D00004F0294630BD94F0000F83F4801306BF6B
:1003E00081F480110134013D4EE77FEA645C18BF5F
:1003F0007FEA655C29D094EA050F08BF90EA020FF6
:1004000005D054EA000C04BF1946104630BD91EAED
:10041000030F1EBF0021002030BD5FEA545C05D1F0
:100420004000494128BF41F0004130BD14F580042F
:100430003CBF01F5801130BD01F0004545F0FE41A3
:1004400041F470014FF0000030BD7FEA645C1ABFD8
:10045000194610467FEA655C1CBF0B46024650EA0F
:10046000013406BF52EA033591EA030F41F400213B
:1004700030BD00BF90F0000F04BF0021704730B5C1
:100480004FF4806404F132044FF000054FF0000196
:1004900050E700BF90F0000F04BF0021704730B557
:1004A0004FF4806404F1320410F0004548BF40422C
:1004B0004FF000013EE700BF42004FEAE2014FEA81
:1004C00031014FEA02701FBF12F07F4393F07F4F5C
:1004D00081F06051704732F07F4208BF704793F05F
:1004E0007F4F04BF41F40021704730B54FF4607472
:1004F00001F0004521F000411CE700BF50EA010275
:1005000008BF704730B54FF000050AE050EA01021D
:1005100008BF704730B511F0004502D5404261EB8D
:1005200041014FF4806404F132045FEA915C3FF4CE
:10053000D8AE4FF003025FEADC0C18BF03325FEA6B
:10054000DC0C18BF033202EBDC02C2F1200300FA1C
:1005500003FC20FA02F001FA03FE40EA0E0021FA41
:1005600002F11444BDE600BF4FEA4102B2F1E0439C
:1005700024BFB3F5001CDCF1FE5C0DD901F0004C8A
:100580004FEAC0024CEA5070B2F1004F40EB8300DA
:1005900008BF20F00100704711F0804F21D113F106
:1005A0003872BCBF01F00040704741F480114FEA3F
:1005B0005252C2F11802C2F1200C10FA0CF320FAC8
:1005C00002F018BF40F001004FEAC1234FEAD323E5
:1005D00003FA0CFC40EA0C0023FA02F34FEA43034F
:1005E000CCE77FEA625307D150EA01331EBF4FF0D8
:1005F000FE4040F44000704701F0004040F0FE40F3
:1006000040F40000704700BF53B94AB9002908BF41
:1006100000281CBF4FF0FF314FF0FF3000F088B9C9
:10062000ADF1080C6DE904CE00F006F8DDF804E049
:10063000DDE9022304B070472DE9F047089D8E469E
:1006400004468846002B4AD18A42174662D9B2FA3C
:1006500082F64EB1C6F1200301FA06F820FA03F340
:10066000B74043EA0808B4404FEA174E1FFA87FC28
:10067000B8FBFEF1230C0EFB118843EA084301FB93
:100680000CF29A4209D9FB1801F1FF3080F0EA80A0
:100690009A4240F2E78002393B449A1AA3B2B2FB75
:1006A000FEF00EFB102243EA024300FB0CFC9C45CB
:1006B00009D9FB1800F1FF3280F0D6809C4540F24A
:1006C000D3803B44023840EA0140A3EB0C030021F5
:1006D0001DB1F3400022C5E90032BDE8F0878B422E
:1006E00005D90DB1C5E9000100210846F5E7B3FAC7
:1006F00083F1002946D1734502D3824200F205817D
:10070000841A6EEB030201209046002DE5D0C5E966
:100710000048E2E7002A00F09080B2FA82F6002E4C
:1007200040F0A4808A1A030C4FEA174E80B2BCB284
:100730000121B2FBFEFC0EFB1C2243EA024304FB38
:100740000CF29A4207D9FB180CF1FF3802D29A42F8
:1007500000F2E080C4469B1AB3FBFEF20EFB12339C
:1007600040EA034302FB04F49C4207D9FB1802F160
:10077000FF3002D29C4200F2CA8002461B1B42EAB2
:100780000C40A5E7C1F120068B4022FA06F71F4373
:100790000EFA01F420FA06F32EFA06FE4FEA174984
:1007A000234300FA01F81FFA87FCBEFBF9F01C0C8A
:1007B00009FB10EE44EA0E4400FB0CFEA64502FACB
:1007C00001F209D93C1900F1FF3A80F09C80A6455E
:1007D00040F2998002383C44A4EB0E041FFA83FED9
:1007E000B4FBF9F309FB13444EEA044403FB0CFC8D
:1007F000A44508D93C1903F1FF3E80F08280A4454E
:100800007FD9023B3C4443EA0040A4EB0C04A0FB2C
:1008100002EC64457346E14662D35FD05DB1B8EB4C
:10082000030264EB090404FA06F622FA01F31E43FC
:10083000CC40C5E9006400214FE7B1FBF2FC010C9C
:1008400041EA0E4180B240EA01423B4638463C460E
:10085000B846BE462026B1FBF7F1A2EB080241EAFA
:100860000C4166E7014618E710462CE7C6F1200266
:100870002EFA02F3B740B14020FA02F24FEA174EC7
:100880000A43B3FBFEF8BCB20EFB1833110C41EA6D
:10089000034108FB04F9B04089454FEA104380B298
:1008A0003ED9791808F1FF3C01D289451FD8A1EB48
:1008B0000901B1FBFEF909FB04F80EFB191192B214
:1008C00042EA0142424529D2BA1809F1FF31C4D2A5
:1008D0004245C2D2A9F102013A44BEE7F0459DD299
:1008E000BEEB02036CEB070C0138E14696E7A7EB81
:1008F00009094944A8F1020CB1FBFEF909FB04F80F
:10090000DBE773467FE7504666E70846FDE63B4473
:10091000023A33E7ACF1020C3B441CE749469CE742
:10092000A1EB0901C446B1FBFEF909FB04F8C4E7D9
:10093000704700BF3C4B1A6822F07C521A601A685C
:1009400042F028521A60DA6822F07C52DA60DA68E3
:1009500042F0A852DA601A6822F47C021A601A681F
:1009600042F4A8021A60314AD16A0021D162916A28
:100970006FF30F019162D16A41F49C4141F0200173
:10098000D162916A41F0FB019162596941F40071B1
:100990005961116841F001011160596921F4007138
:1009A0005961116821F0010111605A6822F4E04296
:1009B0001204120C5A609A6822F07C529A609A686B
:1009C00042F028529A605A6942F400625A615A6AA7
:1009D000C2F313025A625A6A42F0AA6242F4A02297
:1009E0005A62A3F544431A6822F038021A601A6862
:1009F00042F018021A601A6822F003021A601A689C
:100A000042F004021A601A6842F440721A601A68CE
:100A100022F080021A601A6822F404421A601A68EE
:100A200042F040021A607047001802400010004077
:100A30000C4B0D491A6C22F4810222F031021A6427
:100A40001A6C0A431A641A6A0A431A6200BF00BF8A
:100A50001A6A22F031025204520C1A6200BF00BF1F
:100A6000704700BF00380240318040000C4B0D4AF7
:100A7000596C0A405A64596C0B4A0A435A64596AC1
:100A80000A4A0A435A6200BF00BF5A6A22F4E0428F
:100A900022F020021204120C5A6200BF00BF7047FD
:100AA00000380240DE8FDFFF21702000207024001C
:100AB000084B1A6B22F07F021A631A6B42F07F0216
:100AC0001A6300BF00BF1A6922F07D021204120CE3
:100AD0001A61704700380240F0B59DF81C609DF81F
:100AE00014509DF81840027043708570C4700671F0
:100AF0000F6881607000824027EA02070F600F686C
:100B00003A430A604A68B34022EA03024A604A68EC
:100B100013434B608A6805FA00F322EA03028A60F5
:100B20008A6813438B60CA6804FA00F322EA03025E
:100B3000CA60CA681343CB60F0BD70B588B0024686
:100B40000DF10101012301F8013F0133202BFAD1FE
:100B500040F20663ADF800306D46144608AE2B46F1
:100B600003CBB342206061601D4604F10804F6D156
:100B7000104608B070BDF0B504460F4616460FCCBF
:100B800089B001AD0FC594E8070085E80700039A16
:100B90000499536923EA0103536147F08001079BDD
:100BA00001A89847079B314601A89847039A0499E2
:100BB00053690B43536109B0F0BD0A461221FFF798
:100BC000DABF70B504460E460FCC88B001AD0FC534
:100BD00094E8070085E80700039A0499536923EA1B
:100BE0000103536106F07F01079B01A89847079B0B
:100BF000FF2101A89847039A04995369C0B20B4397
:100C0000536108B070BD38B50D4601210446FFF7A9
:100C1000D8FF00F0F8022A4320460121BDE8384001
:100C2000FFF7A9BF73B50446CDE900230121234A8C
:100C30009DF818609DF82050002301F0AFFE204B76
:100C40006362204B2362204BA362204BE362204B64
:100C50002363204B636320460021FFF7D4FF204627
:100C600080220121FFF787FFEA0042EA8612204630
:100C700002F0F8021D21FFF77EFF204694221E217C
:100C8000FFF779FF204600220E21FFF774FF204670
:100C900000220F21FFF76FFF204620222221FFF7BD
:100CA0006AFF204620222321FFF765FF012120460D
:100CB00002B0BDE87040FFF7A6BF00BF005401407E
:100CC000D90C0008150D00086D0D0008DF0C000898
:100CD000C10D0008BB0B00080121FFF794BF10B540
:100CE00001210446FFF78FFF204600224021FFF735
:100CF00042FF204640221221FFF73DFF20460D21F2
:100D00000022FFF738FF052121772046BDE810407B
:100D1000FFF779BF10B509210446FFF752FF60F0D5
:100D20007002D2B220460921FFF725FF0921204693
:100D3000FFF747FF5A212046FFF743FF40F0070225
:100D4000D2B220465A21FFF716FF0B212046FFF7AB
:100D500038FF40F020020B212046D2B2FFF70BFFF4
:100D600020460B21BDE81040FFF72BBF70B50446AD
:100D70000D460121FFF747FF01212046FFF7CAFF7B
:100D8000402211462046FFF7F6FE08221221204697
:100D9000FFF7F1FE00220D212046FFF7ECFE6E1E4C
:100DA0001F3516F8012F00212046FFF7E4FEAE4262
:100DB000F7D1032121772046BDE87040FFF723BF1C
:100DC000F8B5044615460F4640221221FFF7D3FE20
:100DD00013212046FFF7F5FE102106462046FFF7B7
:100DE000F0FEAE4202460FD80D212046FFF7C3FEAB
:100DF0000025AE4201DC0120F8BD00212046FFF7AE
:100E0000E0FE78550135F4E70020F5E7224A137833
:100E10000133DBB2042B137005D8204A136923F089
:100E20000103136170471E4B99684B6923F480538B
:100E30004B611C4B99684B6923F400634B611A4B5F
:100E400099684B6923F020034B61184B99684B69F3
:100E500023F040034B61164B99684B6923F4805390
:100E60004B61144B99684B6923F480634B61124BBF
:100E700099684B6943F480434B61104B99684B6907
:100E800043F400534B610E490B7803F001030B70E0
:100E900000231370C1E700BFE904002000000140F7
:100EA000740300208C0300203C0200202402002058
:100EB000BC030020D4030020040400201C040020F4
:100EC000EC04002008B5C82001F034FD0A4B5A6933
:100ED000920710D55A6922F002025A61074A9268B5
:100EE000126912F4804F5A6922F002025A611EBF41
:100EF000034B01221A7008BD003C01406401002030
:100F0000E8040020044B5A69120742BF5A6922F0D4
:100F100008025A61704700BF003C0140084A53690B
:100F200023F4F8735361074B01221A70064B4FF4F8
:100F30000002C3F88020BFF34F8FBFF36F8F70475D
:100F4000003C0140E504002000E100E0F0B589B07C
:100F500072B68E4E4FF40007C6F88070BFF34F8F05
:100F6000BFF36F8F8A4D8B4C642001F0E4FC20228C
:100F700029468948FFF724FF884B6878A978607074
:100F800000221A702A78864B2270022AA17008D09B
:100F9000844A012111701A780A441A7000BF09B0FE
:100FA000F0BD014040F0E9807F4A197095686A6998
:100FB00042F001026A617D4D2A7801322A707C4D2F
:100FC0007C4A2B78107033B1012B00F08580754B73
:100FD00005221A705CE06846FFF7AFFD76496B4664
:100FE00008A80A4653F8046B41F8046B8342F9D110
:100FF0000623137063785370002370491970D978F1
:1010000091709978D17059781171197851716C4932
:101010001970D97891719978D171597811721978BC
:10102000517268491970D97891729978D17259784A
:1010300011731978517364491970D978917399783B
:10104000D173597811741978517460491970D9782D
:1010500091749978D17459781175197851755C49E2
:101060001970D97891759978D17559781176197860
:10107000517658491970D97891769978D1765978FE
:1010800011771B78537700239377D37701232B7045
:10109000514C4949A268404853693F4D23F480634D
:1010A0005361FFF763FE12212846FFF78AFD03070D
:1010B000F9D5A2683848536943F48063536112211B
:1010C0000822FFF758FD34480521FFF79CFD2F4B00
:1010D0004FF400021A6062E76846FFF72EFD3649BA
:1010E0006B4608A80A4653F8046B41F8046B834228
:1010F000F9D10723137063785370002337491970AF
:10110000D97891709978D170597811711978517195
:101110009371D3711372537231481870D8789072EA
:101120009878D07258781073187850732D481870CA
:10113000D87890739878D073587810741878507461
:1011400029481870D87890749878D07458781075A9
:101150001878507525481870D87890759878D0759B
:101160005878107619461B7853769176D176117798
:1011700051779177D17729708AE70A490A701A78EE
:1011800001321A7000BF3760A5E700BF00E100E040
:10119000C50400204C0400208C040020E50400203D
:1011A000E9040020E60400209C020020C404002082
:1011B000E7040020EC0400206C040020B8000020AC
:1011C000AC000020A00000201C0000201400002023
:1011D0000C00002004000020BC000020240000209F
:1011E000880000207C0000207000002064000020A7
:1011F00072B600BFFDE7000010B594B014220021C4
:1012000009A802F077FF1422002103A802F072FF60
:101210000023204A0193116C41F080511164126C3B
:1012200002F080520192019A1B4A0293116841F424
:10123000404111601268022402F440420820CDE9C6
:101240000E430292B423CDE91003029A08940121BF
:101250001022042308A8CDE90B121294139302F074
:10126000D3FA08B1FFF7C4FF02F094FA0028F9D1CD
:101270000F23CDE9033405904FF4A0524FF480536F
:10128000052103A8CDE9062302F09AFC0028E9D144
:1012900014B010BD003802400070004070B50D461B
:1012A00088B0EA7809786426044600960123002A6B
:1012B0003CD1314801F0DCFF98B100238DF80C30AF
:1012C00003AD234607AE2A4603CAB24218605960EE
:1012D000154603F10803F6D112881A80204608B09B
:1012E00070BD00962978244802230DF10E0202F009
:1012F00099F80028E1D19DF80E3007EE903AF8EE0B
:10130000E77A17EE903AC3F307228DF80E308DF886
:101310000F20C3F30742C3F307638DF81130042392
:101320008DF80D308DF810200123C7E712480022F8
:1013300001F09EFF0028C0D129780F4800960223B3
:101340000DF10E0241F0010102F06CF80028B4D159
:101350009DF80E209DF80F3043EA02131B0907EE9B
:10136000903A1306F8EEE77A44BF9FED047A77EEE1
:10137000C77A17EE903AC6E7A00500200000804526
:101380002DE9F04F2DED068B93B001F039FCFFF7FE
:1013900033FFFFF74DFBFFF769FBFFF789FB642085
:1013A00001F0C9FA142200210DA802F0A3FE0025C5
:1013B0003B4B07951A6B3B483B4E42F004021A63C5
:1013C0001A6B02F004020792079A08951A6B42F012
:1013D00020021A631A6B02F020020892089A0995FB
:1013E0001A6B42F080021A631A6B02F080020992B3
:1013F000099A0A951A6B42F001021A631A6B02F0FD
:1014000001020A920A9A0B951A6B42F040021A6383
:101410001A6B02F040020B920B9A0C951A6B42F079
:1014200002021A631B6B03F002030C932A4640214D
:101430000C9B01F04DFD2A461C48102101F048FD8F
:101440000124402317480DA9CDE90D34CDE90F55EE
:1014500001F05AFC102315480DA9CDE90D34CDE952
:101460000F5501F051FC042311480DA9CDE90D34AD
:10147000CDE90F5501F048FC0E490F4B3562C6E926
:10148000001330464FF48043C6E90255C6E90435DF
:10149000C6E9065501F044FE014678B1FFF7A8FE03
:1014A0000038024000140240A0050020001802404D
:1014B0000000024000580040A0860100304602F0C3
:1014C0002BF901460028E9D1304602F044F90346E1
:1014D0000028E3D1C448C54A83604FF48278C0E94C
:1014E0000028C0E908334FF4006243618362022799
:1014F0000A234FF400761825C362C0E90327C0E928
:10150000066502F09FFC03460028C7D1B848B94AD7
:101510008360C0E90028C0E90753C0E909334FF4EC
:1015200000620A23C0E90546C0E90327C36202F04E
:1015300089FC06460028B1D1DFF84CB3DFF84CA394
:10154000AD4D4FF00C08FFF7F5F9CDE901483346F2
:1015500022465846A9490094FFF7BEFA0B23CDE96D
:101560000143224633465046A4490094FFF7B4FA9B
:101570000A23CDE9014322463346A049A0480094FE
:10158000FFF7AAFA0923CDE90143224633469B49D6
:101590009C480094FFF7A0FA0823CDE901432246B6
:1015A0003346284695490094FFF796FA0923CDE97A
:1015B000014322463346944994480094FFF78CFA3D
:1015C00033462246CDE90176914992480094FFF7CF
:1015D00083FA33462246CDE901748D498E48009442
:1015E000FFF77AFA0723CDE90173224633468B4988
:1015F0008B480094FFF770FA0823CDE90173224667
:1016000033464FF00509854986480094FFF764FA90
:10161000CDE90179334622467D4983480094FFF79E
:101620005BFA0623CDE901732246334678497F48A9
:101630000094FFF751FA0F23CDE901733246334688
:101640007B497C480094FFF747FA0E23CDE90173EC
:1016500032463346764978480094FFF73DFA0D2329
:10166000CDE9017332463346714974480094FFF75F
:1016700033FACDE90178334632466D49704800941B
:10168000FFF72AFA0B23CDE9017332463346684946
:101690006C480094FFF720FA33463246CDE90176D4
:1016A00069496A480094FFF717FACDE90179334692
:1016B0003246554966480094FFF70EFA0423CDE9F7
:1016C000017332463346504962480094FFF704FAEA
:1016D0000F23CDE90173224633465F495F480094EA
:1016E000FFF7FAF90E23CDE90173DFF8A4915A4907
:1016F0005B48009433462246FFF7EEF90323CDE919
:10170000017322463346484641490094FFF7E4F905
:1017100033462246CDE9017752483D490094FFF710
:10172000DBF9D9F808204F4853694749DFF864913D
:1017300043F00803536182684B48536943F0040344
:1017400053610D23CDE90173224633460094FFF720
:10175000C3F90E23CDE90173224633463A49434883
:101760000094FFF7B9F90B23CDE9017332463346F4
:1017700035493F480094FFF7AFF90A23CDE90173DB
:101780002246334630493B480094FFF7A5F9CDE99E
:101790000178334622462C4937480094FFF79CF9DC
:1017A0000F23CDE90173324633462749334800946D
:1017B000FFF792F90B23CDE9017322463346264900
:1017C0002F480094FFF788F9CDE901783346224687
:1017D00021492C480094FFF77FF90823CDE90173D4
:1017E0002246334658E000BF480500200050014023
:1017F000F004002000300140AC0100200000024055
:10180000DC010020C40100200008024094010020F7
:10181000001802409C0200208402002000100240B8
:101820006C020020540200203C0200202402002010
:10183000001402407C010020640100204C010020C3
:10184000340100201C01002000040240040100209B
:10185000EC000020D4000020000C0240FC0200201C
:10186000E4020020B40200201C0400200404002034
:10187000EC030020D4030020BC030020A4030020BC
:101880008C030020740300200C020020F4010020CF
:10189000CC020020440300209A499B480094FFF7A3
:1018A0001BF90923CDE90173DFF8AC829549009457
:1018B000334622464846FFF70FF90A23CDE9017364
:1018C0002246334640468F490094FFF705F90D2321
:1018D000CDE90173324633468A498C480094FFF7BC
:1018E000FBF80A23CDE9016322463346884889493B
:1018F0000094FFF7F1F88648874982688748536962
:1019000043F480635361864B9A68536923F48043A0
:101910005361844A9268536923F4005353618A687F
:101920007849536923F48053536182687E48536930
:1019300023F4806353617D4B9A68536923F4805389
:1019400053617B4A9268536923F400635361D8F86A
:101950000820536923F480635361D9F80820536940
:101960004FF0070C23F40073536133463246CDE940
:10197000016C0094FFF7B0F86E4BDA6822F4405225
:10198000DA60DA6842F44052DA60D3F80C2422F0CC
:101990008002C3F80C24D3F80C2442F08002C3F870
:1019A0000C24D3F8082422F08002C3F80824D3F8CA
:1019B000082442F08002C3F80824D3F8002422F05F
:1019C0008002C3F80024D3F8002442F08002C3F858
:1019D0000024594B4FF400021A60902283F8172319
:1019E000029409244B4A554955484FF40063CDE908
:1019F0000074FFF717F95248524CFFF770F950483E
:101A00004021FFF7DAF8DBF80820434953694348DF
:101A100023F480535361DAF80820536923F40063F8
:101A20005361A268484C536923F480635361A268F0
:101A3000464C536923F400735361AA68536923F435
:101A400080735361A268424C536923F4007353615D
:101A5000334B9A68536923F480435361314A926847
:101A6000536923F4005353618A68536923F4805304
:101A700053618268536923F4806353612B4B9A68E6
:101A8000536923F480535361294A2670926853693D
:101A900023F400635361D8F80820536923F480636A
:101AA0005361D9F80820536923F400735361294B1B
:101AB0001E7023780F2B51D80F2BFBD801A252F8A0
:101AC00023F000BF911D00088F2300081D2400088B
:101AD000252400088D240008B51A0008B51A00084E
:101AE0008F25000859260008452700081F280008F0
:101AF000B51A0008B51A0008B51A0008B51A00088A
:101B000047250008000C02405C030020140300205D
:101B1000BC00002000180240BC030020D4030020B9
:101B2000040400201C04002034040020740300205E
:101B30008C0300200038014000E100E0644100080F
:101B40008C040020DC010020C4010020940100204E
:101B5000ED040020EC0400202C030020802BFDD19C
:101B600072B6DBF80820DFF8248253697A4923F43F
:101B700080535361DAF80820536923F400635361FA
:101B8000764B9A68536923F480635361744B9A6867
:101B9000536943F400735361AA68536943F4807333
:101BA0005361704B9A68536943F40073536198F81A
:101BB00000306D4A13F0400F6C4B9868436900F099
:101BC0008D868968926843F0400343614B6943F412
:101BD00080534B61536943F480635361644B654F99
:101BE0009A68654E536923F020035361634B9A68EA
:101BF000536923F480535361614B9A68536923F40A
:101C0000006353615F4B9A68536943F480435361A7
:101C10005D4B9A68536943F400535361BA68536942
:101C200043F008035361B268536943F004035361FE
:101C30001E2000F080FEB268536923F00403536154
:101C4000BA68536923F0080353611E2000F073FE45
:101C5000B268536943F004035361BA68536943F0AF
:101C6000080353614FF4FA7000F065FEB2685369DF
:101C700023F004035361BA68536923F008035361E6
:101C80001E2000F058FEB268536943F0040353610C
:101C9000BA68536943F0080353614FF4FA7000F0D7
:101CA0004AFEB268536923F004035361BA6853696A
:101CB00023F0080353611E2000F03DFEB268536913
:101CC00043F004035361BA68536943F00803536156
:101CD0004FF4FA7000F02FFEB268536923F004034A
:101CE0005361BA68536923F0080353611E2000F062
:101CF00022FEB268536943F004035361BA68536922
:101D000043F0080353614FF4FA7000F014FEB26818
:101D1000536923F004035361BA68536923F008033D
:101D200053611E2000F007FEBA68536943F00803B0
:101D30005361B268536943F0040353614FF4FA707E
:101D400000F0F9FD98F8003023F0080388F800301F
:101D50000023237062B6ACE6BC030020DC01002047
:101D6000C401002094010020D4030020240200209C
:101D70003C020020CC020020B402002074030020AA
:101D80008C030020040400201C040020EC0400202C
:101D900062B6DBF80820D24E536943F48053536196
:101DA000DAF80820536943F400635361CD4B9A6815
:101DB000536943F480635361CB4B9A68536943F48E
:101DC00000735361AA68536943F480735361C74B2E
:101DD0009A68536943F4007353613378002B00F021
:101DE000BA81FFF7B3F83378002B00F0B681FFF724
:101DF000ADF83378002B00F0B281FFF7A7F800268A
:101E0000BB48ADF818603246402101F061F8642308
:101E1000B849009306AA0123B748DFF81C93B74FCF
:101E2000DFF8E48202F06AF8012205904021B04810
:101E300001F04EF8059AB24B002A00F092811E7014
:101E400089F800603E7088F80060DFF8B492DFED3A
:101E5000AD8AB9F80130DFF8E082A84FAA4E07EE4C
:101E6000903AF8EEE77AB1EE048A87EEA87A67EE48
:101E7000087A17EE900AFEF71FFB97A3D3E9002319
:101E8000FEF7BCF9FEF770FBB8F8013007EE903AA8
:101E9000F8EEE77A0AEE100A87EEA87A3AEE0AAA76
:101EA00067EE087A89ED01AA17EE900AFEF704FBA7
:101EB00089A3D3E90023FEF7A1F9FEF755FBB7F894
:101EC000013007EE903AF8EEE77A09EE900A87EED5
:101ED000A87A79EEA99A67EE087AC8ED019A17EE0A
:101EE000900AFEF7E9FA7CA3D3E90023FEF786F90E
:101EF000FEF73AFBB6F8013007EE903AF8EEE77AD3
:101F000009EE100A87EEA87A39EE099A67EE087A88
:101F100087ED019A17EE900AFEF7CEFA6EA3D3E989
:101F20000023FEF76BF9FEF71FFB07EE900A9FED0B
:101F3000777A6B4977EEA77A2AEE07AA69EE879A35
:101F400029EE079AC6ED017A0B7889ED02AA67EEB1
:101F5000877AC8ED029A87ED029AC6ED027A13B12C
:101F6000FEF7F4FF5E496A4BD9ED025AD3ED007AD1
:101F7000F8EEE77AF4EEE75AF1EE10FAC0F24B8190
:101F8000644A0A232370138843F0800313800B787C
:101F9000002B00F09981FEF7D9FF00265E48ADF8CE
:101FA00018603246042100F093FF642351490093E6
:101FB00006AA01235948DFF87091594FDFF86C8168
:101FC00001F09CFF012205900421534800F080FF9E
:101FD000059A544B002A00F079811E7089F8006040
:101FE0003E7088F800604F484F49B0F801304C4AC5
:101FF00007EE903AB1F80130F8EEE77A87EEA86A7A
:1020000007EE903AB2F80130F8EEE77A26EE086A69
:10201000C7EEA86A07EE903A444B80ED016AB3F828
:10202000016005EE906AF8EEE77AF8EEE55A87EE81
:10203000A87A2B4EC5EEA87AF2EE045A67EE887A9B
:1020400066EE886A27EE087AC3ED017A67EEA57A14
:1020500026EE256AC1ED016A82ED017A66EEA56A77
:1020600027EE257AC3ED027A337880ED026AC1ED5E
:10207000026A82ED027A002B00F08281FEF766FF91
:102080002B4B2C4FD3ED007AF8EEE77A3946F5EE7C
:10209000C07AF1EE10FAC4BF1E4A13880DA8C4BF5F
:1020A00043F080031380FFF7F9F89DF834309DF872
:1020B0003520002B00F066810023043712A850FA67
:1020C00083F0D9B210F8120C78540133D9B291428E
:1020D000F4D933E0AFF30080C1FF56B26323703F01
:1020E000E5040020DC010020C40100209401002050
:1020F00000140240744100084805002098000020A8
:10210000B000002000F07F458C00002000007042ED
:1021100030000020EA04002000000240F00400200B
:102120006800002080000020740000205C00002077
:102130002800002020000020A40000203378002B7D
:1021400000F02381FEF702FF23780A2B3FF4B1ACA5
:1021500001232370ADE400BF45E600BF49E600BFA0
:102160004DE69DF818205A709DF819209A700126A6
:10217000059AB4481E70402189F800603E7088F8C6
:10218000006000F0A5FE6423AF49009306AA334621
:10219000AE4801F0B3FEAB483246402100F098FE55
:1021A0009DF81830059AA74889F8013040219DF81C
:1021B000193089F8023000F08BFE6423A4490093A3
:1021C00006AA3346A14801F099FE9E4832464021B6
:1021D00000F07EFE9DF81830059A9A487B704021E9
:1021E0009DF81930BB7000F073FE64239949009389
:1021F00006AA3346954801F081FE924832464021B6
:1022000000F066FE9DF8183088F801309DF819300E
:1022100088F8023019E698ED026AF4EEC67AF1EE1B
:1022200010FA06D88C4A0A232370138843F040031F
:10223000ACE6D7ED026AF4EEE67AF1EE10FA06D8D3
:10224000854A0A232370138843F020039EE696ED07
:10225000027AF4EEC77AF1EE10FA07D87F4B0A2221
:102260001A707D4A138843F010038FE67C4BD3ED40
:10227000007AF8EEE77AF4EEE75AF1EE10FA04DBB2
:10228000754A138843F0080380E6B4EEE76AF1EE7E
:1022900010FA04DB704A138843F0040376E6F4EE88
:1022A000E76AF1EE10FA04DB6B4A138843F002038D
:1022B0006CE6B4EEE77AF1EE10FAFFF668AE664A25
:1022C000138843F0010361E600BF66E69DF818201D
:1022D0005A709DF819209A700126059A61481E705F
:1022E000102189F800603E7088F8006000F0F0FD71
:1022F00064235549009306AA33465B4801F0FEFD6E
:1023000058483246102100F0E3FD9DF81830059A38
:10231000544889F8013010219DF8193089F80230AD
:1023200000F0D6FD64234A49009306AA33464E487E
:1023300001F0E4FD4B483246102100F0C9FD9DF844
:102340001830059A47487B7010219DF81930BB70F2
:1023500000F0BEFD64233F49009306AA334642487D
:1023600001F0CCFD3F483246102100F0B1FD9DF850
:10237000183088F801309DF8193088F8023032E6BC
:1023800000BF7DE600237B60D8E600BFDCE6DBF81B
:102390000820536923F480535361DAF80820536905
:1023A00043F400635361314B9A68536923F48063AB
:1023B00053612F4B9A68536923F400735361AA68E1
:1023C000536923F4807353612A4B9A68536923F449
:1023D00000735361284B1B78ABB1FEF7B7FD274B59
:1023E0009B681969264B9A68264B11F4804F9B68AD
:1023F00051690AD141F4804151615A6922F4804205
:102400005A610323A5E600BFE9E721F48041516149
:102410005A6942F480425A6102239AE672B6002356
:102420001B69FFDE144B1B7853B1FEF78FFD164B73
:102430004FF400021A60902283F81723042388E6E1
:1024400000BFF4E700140240724100084805002074
:10245000704100086E410008EA040020ED040020ED
:102460002C00002000180240F0040020DC010020B5
:10247000C401002094010020E50400206401002034
:102480006C0200208402002000E100E0DBF808205C
:10249000536923F480535361DAF80820536923F415
:1024A00000635361974B9A68536943F480635361A7
:1024B000954B9A68536923F400735361AA68536972
:1024C00023F480735361914B9A68536923F400732A
:1024D00053618F4B1B783BB1FEF738FD8D4B1B785A
:1024E000DA0703D40A2334E600BFF7E71F0601D555
:1024F0009E07F7D413F0060201D1092329E6042A26
:1025000019D1854A91684A6922F480524A61834A06
:1025100091684A6922F400624A61814A91684A6975
:10252000180722F020024A6101D5802311E65906DE
:10253000E3D508230DE6022A05D19A06DDD4DB0691
:10254000DBD5072305E6DBF80820536943F4805305
:102550005361DAF80820536923F400635361694B2F
:102560009A68536923F480635361674B9A6853698F
:1025700023F400735361AA68536923F48073536191
:10258000624B9A68536943F400735361AAE7DBF81E
:102590000820536923F480535361DAF80820536903
:1025A00023F400635361574B9A68536923F48063A3
:1025B0005361554B9A68536943F400735361AA6899
:1025C000536923F480735361504B9A68536923F421
:1025D00000735361534B00221A80534B99684B6927
:1025E00043F480434B61514B99684B6943F400536A
:1025F0004B614F4B99684B6923F040034B614D4B46
:1026000099684B6923F480534B614B4B99684B6934
:1026100023F480634B61494B99684B6923F4004371
:102620004B61474B99684B6923F480434B613C4BAA
:1026300099684B6943F020034B61374B99684B69AC
:1026400043F480534B61354B99684B6943F4006305
:102650004B612270FFF72DBADBF80820536923F491
:1026600080535361DAF80820536923F400635361FF
:10267000244B9A68536923F480635361224B9A6810
:10268000536923F400735361AA68536923F4807378
:1026900053611E4B9A68536943F400735361214B95
:1026A00000221A80204B99684B6943F480434B61A8
:1026B0001E4B99684B6943F400534B61184B996862
:1026C0004B6923F020034B61134B99684B6923F44A
:1026D00080534B61114B99684B6923F400634B6144
:1026E000134B99684B6943F040034B61114B996858
:1026F0004B6943F480534B610F4B99684B6943F42A
:102700008063A5E7DC010020C401002094010020C3
:10271000E5040020EC040020740300208C0300205A
:102720003C020020EA040020040400201C040020D5
:1027300024020020BC030020D4030020FC0200205F
:10274000E4020020DBF80820536943F4805353610E
:10275000DAF80820536943F400635361664B9A68C2
:10276000536943F480635361644B9A68536923F45B
:1027700000735361AA68536923F480735361604BFB
:102780009A68536923F4007353615E4B9A685369E6
:1027900023F4004353615C4B9A68536923F00803A8
:1027A00053615A4B9A68536923F480435361584BE1
:1027B0009A68536923F004035361564B9A6853692E
:1027C00043F400535361544B9A68536943F4804374
:1027D0005361524B9A68536923F480535361504BB1
:1027E0009A68536923F4006353614E4B9A685369A6
:1027F00023F0200353614C4B9A68536923F0400344
:1028000053614A4B9A68536923F480535361484B90
:102810009A68536923F480635361002399E4DBF8D9
:102820000820536943F480535361DAF80820536950
:1028300043F400635361304B9A68536943F48063F7
:1028400053612E4B9A68536943F400735361AA682D
:10285000536943F480735361294B9A68536943F475
:1028600000735361274B9A68536923F0080353613F
:10287000264B9A68536923F004035361274B9A68E7
:10288000536923F480535361254B9A68536923F4A9
:1028900000635361234B9A68536923F0200353610B
:1028A000214B9A68536923F0400353611F4B9A6888
:1028B000536923F4805353611D4B9A68536923F481
:1028C00080635361144B9A68536923F480435361C6
:1028D000104B9A68536923F400539DE78968926806
:1028E00023F0400343614B6923F480534B615369E8
:1028F00023F48063FFF771B9DC010020C4010020DC
:1029000094010020FC020020CC020020E402002000
:10291000B40200201C0400200404002074030020E2
:102920008C0300203C02002024020020BC03002075
:10293000D40300207047704713B500230446ADF858
:1029400006300369984763690DF1060120469847F0
:10295000626893681B06FCD4BDF8060080B202B022
:1029600010BD43689A689207FCD5C9B2D960704718
:1029700043689A689207FCD5D960704743689A68A3
:10298000D207FCD5DB68DBB20B80704743689A68DE
:10299000D207FCD5DB689BB20B807047002B4260EE
:1029A000084B009A017082600749019AC260074A89
:1029B00008BF1A46064B08BF0B46C0E90423054B67
:1029C00083617047632900087D2900087129000888
:1029D0008D2900083929000882B00C4B0021009194
:1029E0005A6C42F480425A645A6C02F4804200925B
:1029F000009A01911A6C42F080521A641B6C03F029
:102A000080530193019B02B0704700BF0038024021
:102A100030B5044689B01422002103A801F06AFBF6
:102A20002268134B9A4220D1124C1348002501957D
:102A3000236B43F020032363236B03F020030193F4
:102A4000019B12220323CDE90332069303A9042339
:102A5000079300F059F90295236C43F48003236433
:102A6000236C03F480030293029B09B030BD00BFC6
:102A700000580040003802400014024010B51422F3
:102A80008AB0044600210DEB020001F033FB2368FD
:102A9000254A934223D1254B002101915A6C42F4DF
:102AA00080525A645A6C02F480520192019A029147
:102AB0001A6B42F001021A631B6B03F001030293CD
:102AC000E020029B0223CDE9050303240523CDE981
:102AD0000843174805A900F017F90AB010BD154AB8
:102AE0009342FAD1114B1448002103915A6C42F4DD
:102AF00080125A645A6C02F480120392039A049171
:102B00001A6B42F020021A631B6B03F0200304933C
:102B1000049B4FF4607202230321CDE905230523B2
:102B2000CDE9081305A9D6E700300140003802407E
:102B3000000002400050014000140240FEE7FEE7A2
:102B4000FEE7FEE7FEE770477047704700F072B897
:102B5000034AD2F8883043F47003C2F888307047D3
:102B600000ED00E0DFF834D0FFF7F2FF0C480D492C
:102B70000D4A002302E0D458C4500433C4188C42D8
:102B8000F9D30A4A0A4C002301E013600432A2423E
:102B9000FBD301F0B7FAFEF7F3FB70470000032008
:102BA0000000002040000020A0410008400000205C
:102BB000F8050020FEE7000038B50E4B1A784FF4F8
:102BC0007A73B3FBF2F30C4A05461068B0FBF3F0DE
:102BD00000F086F8044658B90F2D09D80246294658
:102BE0004FF0FF3000F04AF8044B20461D6038BD1E
:102BF0000120FCE738000020340000203C000020C9
:102C000008B50B4B1A6842F400721A601A6842F455
:102C100080621A601A6842F480721A60032000F021
:102C20001BF80F20FFF7C8FFFFF7D6FE002008BDF6
:102C3000003C0240034A044B11681B780B441360AC
:102C4000704700BFF405002038000020014B1868D1
:102C5000704700BFF40500200749CA6822F4E0620B
:102C60000302120403F4E063120C134343F0BF6346
:102C700043F40033CB60704700ED00E0164B30B5F5
:102C8000DC68C4F30224C4F10703251D042B28BF0C
:102C90000423062D4FF0FF358CBF033C002405FABA
:102CA00003F321EA0303A54022EA0502A34000281A
:102CB00043EA0203ACBF00F16040084A4FEA031345
:102CC000B8BF00F00F00DBB2AABF00F5614013549B
:102CD00080F8003330BD00BF00ED00E014ED00E0EF
:102CE0000138B0F1807F0BD24FF0E023054A5861E4
:102CF000F02182F823100020072298611A617047A2
:102D00000120704700ED00E02DE9F74FDFF8BC919E
:102D10006C4A00230D6801249C4004EA0506AC437C
:102D200040F0B7804D68032705F003044FEA4308DD
:102D300007FA08FC671E012F6FEA0C0C34D887686D
:102D400007EA0C0ECF6807FA08F747EA0E07876014
:102D5000476827EA060EC5F300179F4047EA0E07AB
:102D60004760C76807EA0C0E8F6807FA08F747EA5A
:102D70000E07022CC76019D14FEAD30A00EB8A0A6A
:102D800003F0070BDAF820704FEA8B0B4FF00F0EB1
:102D90000EFA0BFE27EA0E0E0F6907FA0BF747EA49
:102DA0000E07CAF8207001E0032CDAD1076804FA94
:102DB00008F407EA0C073C4315F4403F046068D070
:102DC00000240194D9F8444044F48044C9F84440B4
:102DD000D9F8444023F0030707F1804704F4804406
:102DE00007F59C37019403F0030C019CD7F808E029
:102DF0004FEA8C0C0F2404FA0CF42EEA040E324C29
:102E0000A0424DD004F58064A0424BD004F580640C
:102E1000A04249D004F58064A04247D004F5806404
:102E2000A04245D004F58064A04243D004F58064FC
:102E3000A04241D004F58064A0423FD004F58064F4
:102E4000A0423DD004F58064A04214BF0A240924A6
:102E500004FA0CF444EA0E04BC609468F74315F4D9
:102E6000801F0CBF3C4034439460D46815F4001FAD
:102E70000CBF3C403443D460546815F4003F0CBF91
:102E80003C40344354601468ED0354BF3C40344329
:102E900014600133102B7FF43DAF03B0BDE8F08F19
:102EA0000024D5E70124D3E70224D1E70324CFE7A8
:102EB0000424CDE70524CBE70624C9E70724C7E7A8
:102EC0000824C5E7003C01400000024000380240F1
:102ED0000AB1816170470904FBE701684B6913F48B
:102EE00080634FF0000210D06FF480634B612023A9
:102EF000026380F83D3080F83E20036C80F83C206F
:102F000043F00403036401207047184670472DE91D
:102F1000F84606460F4691461D464FEA114A336869
:102F2000BAF1010F0CBF5C699C6927EA0404A4B2E2
:102F3000B4FA84F46409A14501D0002025E06A1C9C
:102F4000EED0FFF783FE089BC01AA84201D8002DDF
:102F5000E5D13368BAF1010F0CBF5B699B6927EAC1
:102F600003039BB2B3FA83F35B099945D7D10023DE
:102F70002022336386F83D2086F83E30326C86F896
:102F80003C3042F0200232640120BDE8F8862DE991
:102F9000F04104460F46164698462568686927EAB8
:102FA000000080B2C0B16B695A0517D52B6843F495
:102FB00000732B606FF480636B6120220023236316
:102FC00084F83D2084F83E30236C43F004032364EE
:102FD000002384F83C300120BDE8F081731CDDD073
:102FE000FFF734FEA0EB0800B04201D8002ED4D188
:102FF00023685A6927EA020292B2002ACDD0002340
:103000002022236384F83D2084F83E30236C134350
:10301000DDE770B504460D46164623685B691B065E
:1030200001D500201EE02046FFF757FFC8B96A1CF3
:10303000F3D0FFF70BFE801BA84201D8002DECD186
:1030400023685B6913F08003E7D12022236384F8AF
:103050003D2084F83E30226C84F83C3042F020025F
:103060002264012070BD70B504460D4616462368E3
:103070005B695B0701D500201EE02046FFF72DFFAE
:10308000C8B96A1CF3D0FFF7E1FD801BA84201D844
:10309000002DECD123685B6913F00403E7D12022F3
:1030A000236384F83D2084F83E30226C84F83C3061
:1030B00042F020022264012070BD70B504460D4626
:1030C000164621684B6913F0400301D0002011E03F
:1030D0004A69D2060FD56FF010024A61202223639D
:1030E00084F83D2084F83E30236C2364002384F868
:1030F0003C30012070BDFFF7A9FD801BA84201D81C
:10310000002DDED123685B6913F04003D9D1202262
:10311000236384F83D2084F83E30236C1343E4E7B6
:1031200070B5044608B9012070BD90F83D3003F039
:10313000FF021BB980F83C20FFF76AFC242384F8C7
:103140003D3023681A6822F001021A601A6842F4BE
:1031500000421A601A6822F400421A6000F0CAFDA8
:103160003F4B65689D4294BF3E4B3F4B98428CBF9E
:1031700000230123002BD6D12268394E51683B4BE6
:10318000B0FBF3F321F03F011943B542516088BF12
:103190004FF49676116A88BF734321F03F0184BFD4
:1031A0004FF47A76B3FBF6F301330B431362D16924
:1031B000431E2B4821F44F41854221F0FF0132D8B4
:1031C0006D0040F6FC70B3FBF5F30133034242D0CF
:1031D000C3F30B031943D161D4E9073011680343EA
:1031E00021F0C0010B4313609168D4E9030321F47B
:1031F0000341034321F0FF010B439360D4E9053001
:10320000D168034321F0FF010B43D360136843F0FF
:103210000103136000202023206484F83D302063E4
:1032200084F83E0080E7A06850B905EB4505B3FB84
:10323000F5F30133C3F30B037BB143F40043C9E758
:1032400019206843B3FBF0F30133C3F30B0323B13D
:1032500043F44043BEE70423BCE70123BAE700BFC1
:10326000A08601007F841E00FF083D0040420F0041
:103270002DE9F043044685B098460C9F0D469146D3
:10328000FFF7E4FC94F83D30202B064604D00225DD
:10329000284605B0BDE8F08300905E49192301225D
:1032A0002046FFF734FE0028F1D194F83C30012B82
:1032B000EDD02168012384F83C300B68DA075EBF4B
:1032C0000B6843F001030B600B6823F400630B6091
:1032D000212384F83D30102384F83E3000232364FA
:1032E000A4F82A80638D23854B4BE362E36AC4F81C
:1032F0002490082B04D0012B02D013F5803F04D179
:103300000B6843F480730B6002E0236B122BF7D041
:10331000002200963B464FF001112046FFF7F7FDD3
:10332000226840B11368DB0501D40125B0E74FF4F2
:1033300000732364F9E72369B3F5804F21D105F0C9
:10334000FE051561354933463A462046FFF71FFE14
:1033500005460028E9D1236803905A6903929B69C6
:103360000393039B238DF3B921680A6842F400722A
:103370000A60202284F83D2084F83C3084F83E30F6
:1033800086E7EB1103F0060343F0F00313612449D1
:1033900033463A462046FFF7FAFD0028C5D1236898
:1033A000EDB21D61CEE7324639462046FFF731FEC9
:1033B00040B1236C042BB8D12268136843F4007326
:1033C0001360B2E7636A20681A4612F8011B0161B4
:1033D0006262628D013A92B26285228DD0F814C089
:1033E000511E89B21CF0040F21850AD049B15978C9
:1033F000016102336362638D013B9BB2023A6385D4
:103400002285324639462046FFF72DFE0028A9D0F6
:10341000CFE700BF020010000000FFFF0200010024
:10342000080001002DE9F043044689B09846109F3A
:103430000E469146FFF70AFC94F83D30202B0546D6
:1034400004D00226304609B0BDE8F08300909A49C6
:10345000192301222046FFF75AFD0028F1D194F8E4
:103460003C30012BEDD02168012384F83C300B68FF
:10347000DB075EBF0B6843F001030B600B6823F4AE
:1034800000630B60222384F83D30102384F83E3023
:1034900000232364A4F82A80638D2385874BE3628D
:1034A000E36A0A68C4F8249042F48062082B0A6038
:1034B00004D0012B02D013F5803F04D10B6843F4F4
:1034C00080730B6002E0236B112BF7D03B46009515
:1034D00000224FF001112046FFF719FD236838B193
:1034E0001B68DD0544BF4FF4007323640126A9E780
:1034F0002269B2F5804F27D146F00106F6B21E616F
:103500006F492B463A462046FFF741FD0646002804
:10351000ECD1238D2168002B4BD103904B69039391
:103520008B690393039B0B6843F400730B60DFF814
:103530009881238D002B64D1202284F83D2084F8CB
:103540003C3084F83E307DE74FEAE61808F0060884
:1035500048F0F0021A615B492B463A462046FFF7D5
:1035600016FD0028C2D123685549F6B21E613A46BD
:103570002B462046FFF70BFD02460028B6D12368F4
:10358000079059690791996907910799196841F45A
:1035900080711960204600953B464FF00111FFF7FE
:1035A000B6FC226808B113689BE748F0F103136189
:1035B000A6E7012B0AD10B6823F480630B6004900B
:1035C0004B6904938B690493049BACE7022B0B6853
:1035D0000DD123F480630B600B6843F400630B6030
:1035E00005904B6905938B690593059B9FE743F411
:1035F00080630B6006904B6906938B690693069B6C
:1036000095E7032B62D8012B16D12A46394620466E
:10361000FFF753FD00287FF469AF23681A69636AD6
:103620001A70636A01336362238D013B2385638DC6
:10363000013B9BB263857CE7022B00953B464FF034
:103640000002414620461AD1FFF761FC00287FF4B2
:103650004DAF23681A6842F400721A601A69636AEF
:103660001A70626A531C6362238D013B2385638D4C
:10367000013B9BB2638523681B695370D1E7FFF759
:1036800046FC024600287FF431AF2368196821F414
:10369000806119601969636A1970636A0133636232
:1036A000238D013B2385638D013B9BB2638541469E
:1036B00000953B462046C7E7020010000000FFFFD0
:1036C0000200010008000100040001002A463946FA
:1036D0002046FFF7F2FC00287FF408AF23681A6940
:1036E000636A1A70628D616A013A92B24B1C6285FC
:1036F00022686362238D5069013B9BB2400723859A
:103700007FF517AF032B02BF136823F480631360A8
:1037100013694B7085E700BF10B590F83D30202B42
:10372000DCB216D1242380F83D3003681A6822F0F9
:1037300001021A605A6A22F010025A625A6A114350
:1037400059621A6842F001021A6080F83D40002078
:1037500010BD0220FCE730B590F83D30202BDCB2E4
:1037600016D10268242380F83D30136823F001034A
:103770001360556A4FF6F0732B400B439BB25362B4
:10378000136843F00103136080F83D40002030BD12
:103790000220FCE737B500230193184B184D1A6C33
:1037A00042F080521A641B6C03F080530193019B1A
:1037B000144B01221A64FFF749FA04466B68DA03D6
:1037C0000BD5104B0E4D01225A64FFF73FFA044609
:1037D0006B689B030AD5002006E0FFF737FA001B51
:1037E000B0F57A7FEAD9032003B030BDFFF72EFA97
:1037F000001BB0F57A7FEBD9F5E700BF0038024037
:103800000070004000000E422DE9F341044640B331
:103810000368DE0710D423689D075BD4236819076B
:1038200000F19D8023685A0700F1BD80A369002B39
:1038300040F0248100202CE08D4B9A6802F00C02AD
:10384000042A07D09A6802F00C02082A0BD15B68A0
:10385000590208D5864B1B689A03DCD56368002B98
:10386000D9D1012015E06368814DB3F5803F13D1B4
:103870002B6843F480332B60FFF7E8F97C4E054654
:1038800033689B03C7D4FFF7E1F9401B6428F7D9DD
:10389000032002B0BDE8F081B3F5A02F04D12B685E
:1038A00043F480232B60E3E72A6822F480322A6005
:1038B0002A6822F480222A60002BDDD1FFF7C6F9A6
:1038C00006462B689F03A6D5FFF7C0F9801B642826
:1038D000F7D9DDE7664B9A6812F00C0F07D09A68AB
:1038E00002F00C02082A11D15B685D020ED4604A16
:1038F0001368990702D5E368012BB2D113682169D7
:1039000023F0F80343EAC103136087E7E268594BE9
:10391000B2B101221A60FFF799F9554D06462B689E
:103920009B0707D52B68226923F0F80343EAC203FB
:103930002B6073E7FFF78AF9801B0228EFD9A7E70E
:103940001A60FFF783F94A4E054633689F077FF5F3
:1039500065AFFFF77BF9401B0228F6D998E762694B
:10396000444B82B10122C3F8802EFFF76FF9404E1D
:103970000546736F9B073FF555AFFFF767F9401B8F
:103980000228F6D984E7C3F8802EFFF75FF9384E96
:103990000546736F9F077FF545AFFFF757F9401B4B
:1039A0000228F6D974E7324B1A6C12F0805228D1F3
:1039B00001921A6C42F080521A641B6C03F080531F
:1039C0000193019B01272C4D2B68D8051BD5A368BB
:1039D000274D012B27D12B6F43F001032B67FFF7F6
:1039E00035F9234E054641F28838336F9A0739D5A9
:1039F000002F3FF41BAF1E4A136C23F08053136457
:103A000014E70027DFE72B6843F480732B60FFF790
:103A10001DF906462B68D905D9D4FFF717F9801B85
:103A20000228F7D934E7052B04D12B6F43F00403A8
:103A30002B67D0E72A6F22F001022A672A6F22F053
:103A400004022A67002BCAD1FFF700F941F2883837
:103A500006462B6F9B07CBD5FFF7F8F8801B404538
:103A6000F7D915E7FFF7F2F8401B4045BDD90FE73E
:103A7000003802400000474200700040374DAA68FD
:103A800002F00C02082A3ED0022B354B4FF0000208
:103A90001A662BD1FFF7DAF806462B6899011FD476
:103AA000D4E907321343626A43EA8213E26A43EAC3
:103AB0000263A26A5208013A43EA02436B60284B50
:103AC000264D01221A66FFF7C1F804462B689A01B9
:103AD0003FF5B0AEFFF7BAF8001B0228F6D9D7E6DB
:103AE000FFF7B4F8801B0228D7D9D1E6FFF7AEF86C
:103AF00004462B689B017FF59DAEFFF7A7F8001BDE
:103B00000228F6D9C4E6012B3FF4ABAE6B68E2693C
:103B100003F4800191427FF4A4AE216A03F03F02D6
:103B20008A427FF49EAE616A47F6C0721A40B2EBD9
:103B3000811F7FF496AEA26A520803F44031013A25
:103B4000B1EB024F7FF48DAEE26A03F07063B3EB2A
:103B5000026F14BF012000209BE600BF0038024026
:103B600000004742134908B58B6803F00C03042B8F
:103B70001CD0082B1CD14A684B68496813F4800399
:103B800014BF0D480D48C1F3881118BF002302F07F
:103B90003F02A1FB0001FCF737FD064B5B68C3F356
:103BA000014301335B00B0FBF3F008BD0248FCE7C2
:103BB0000248FAE70038024040787D010024F40012
:103BC0002DE9F0410D46044610B90120BDE8F08111
:103BD000434B1A6802F00F028A4228D321688F07EC
:103BE0002DD4C80740D43E4B1A6802F00F02AA42F7
:103BF00065D8226851076BD4130707D5394A216964
:103C0000936823F4604343EAC1039360FFF7AAFF7C
:103C1000344B354A9B68C3F30313D35CD840334B12
:103C20001860334B1868FEF7C7FF0020CEE7CAB212
:103C30001A701B6803F00F038B42C6D1CEE7294BE5
:103C400011F0040F1EBF9A6842F4E0529A600E070A
:103C500042BF9A6842F460429A609A68A06822F073
:103C6000F00202439A60BCE762681E4B012A1CD135
:103C70001B6813F4003FA8D01A4EB36823F0030367
:103C80001343B360FEF7E2FF41F288380746B3689A
:103C9000626803F00C03B3EB820FA4D0FEF7D6FFEB
:103CA000C01B4045F3D9032090E7911E01291B68F2
:103CB00002D813F0007FDEE713F0020FDBE7EAB271
:103CC0001A701B6803F00F03AB427FF47EAF90E7DE
:103CD0000449E0688B6823F4E05303438B608BE76F
:103CE000003C0240003802407E41000834000020C1
:103CF0003C000020044B054A9B68C3F38223D35C3D
:103D0000034A1068D84070470038024076410008E6
:103D1000340000202DE9F3471F46894690460446AB
:103D2000FEF794FF0A9D3D442D1AFEF78FFF264BA8
:103D30001E68C6F3CB366E438246019622689368AE
:103D400039EA03030CBF01230023434501D10020BE
:103D50002EE07B1CF3D0FEF779FFA0EB0A00A8420F
:103D600029D323685A6822F0E0025A606268B2F5EB
:103D7000827F0AD1A268B2F5004F02D0B2F5806FFF
:103D800003D11A6822F040021A60A26AB2F5005FFD
:103D900007D11A6822F400521A601A6842F40052DD
:103DA0001A60012384F85130002384F85030032036
:103DB00002B0BDE8F087019A019B002A03F1FF33AE
:103DC000019308BF1546B9E734000020F0B585B06F
:103DD0000B4600920E461746022101220446FFF7C9
:103DE00099FF054628B1636D43F020036365032501
:103DF00015E0124B1868124BB0FBF3F04FF47A73D6
:103E0000584363680390B3F5827F0BD10097334624
:103E10002A4680212046FFF77DFF0028E3D128466F
:103E200005B0F0BD039B002BF9D0039B013B03932E
:103E300023689B681B06F5D4F1E700BF340000201F
:103E400000366E0110B50446002855D0436A002B99
:103E50004ED14268B2F5827F00D0C3610023A362D5
:103E600094F8513003F0FF0223B984F85020204623
:103E7000FEF704FE2168A068A269022384F851308D
:103E80000B6823F040030B60636800F4044003F404
:103E900082730343E06800F400600343206900F08C
:103EA00002000343606900F00100034302F4007064
:103EB0000343E06900F038000343206A00F080000B
:103EC0000343A06A00F4005003430B60636A120CC2
:103ED00003F0100302F004021A434A60CB6923F492
:103EE0000063CB6100200123606584F8513010BD70
:103EF0000023C0E90433B1E70120F8E72DE9F743D7
:103F000004460D4691461E46DDF82880FEF79EFECB
:103F100094F851306268012B0746D9B20AD0B2F545
:103F2000827F40F0E580A368002B40F0E180042907
:103F300040F0DE80002D4BD0B9F1000F48D0002EAC
:103F400046D094F85030012B00F0D280012384F841
:103F5000503094F85130C4F83890042B1CBF05231E
:103F600084F8513000236365C4E910332368E68781
:103F7000E6861968A687490658BF1968256358BFA1
:103F800041F04001A68658BF1960E168B1F5006FA5
:103F900055D10AB1012E07D135F8022BDA60E38E34
:103FA0002563013B9BB2E3860125E38E9BB28BB96F
:103FB000E38F9BB273B93A4641462046FFF706FFAE
:103FC000002800F0818020236365002384F85030AE
:103FD000012031E021688B689A070DD5E38E9BB2F2
:103FE00053B145B1236B33F8022BCA602363E38ED0
:103FF000013B9BB2E38600258A6812F001020CD0D7
:10400000E38F9BB24BB1A36BC96823F8021BA36378
:10401000E38F013B9BB2E3871546FEF717FEC01BFB
:104020004045C2D3B8F1FF3FBFD0012384F85130DF
:10403000002384F85030032003B0BDE8F0830AB1B8
:10404000012E08D12A781A73236B01332363E38E80
:10405000013B9BB2E38601252DE0226893689B0714
:104060000ED5E38E9BB25BB14DB1236B1B781373FE
:10407000236B01332363E38E013B9BB2E386002570
:104080002268916811F001010DD0E38F9BB253B10A
:10409000A36BD2681A70A36B0133A363E38F013B58
:1040A0009BB2E3870D46FEF7D1FDC01B404502D30E
:1040B000B8F1FF3FB9D1E38E9BB2002BCDD1E38F96
:1040C0009BB2002BC9D176E7A36833B9019323686B
:1040D000DA6801929B680193019B012384F85130B7
:1040E000606D0023C01A84F8503018BF0120A3E788
:1040F0000220A1E702440346934200D1704703F82F
:10410000011BF9E770B50D4D0D4C641BA410002682
:10411000A64209D10B4D0C4C00F018F8641BA410FA
:104120000026A64205D170BD55F8043B98470136DC
:10413000EEE755F8043B98470136F2E7984100084E
:1041400098410008984100089C410008F8B500BF5C
:10415000F8BC08BC9E467047F8B500BFF8BC08BC68
:044160009E467047C0
:104164004753455F4C4F52410000001800100008AF
:104174000000000000000102030400000000000031
:0C41840000000102030406070809000007
:08419000A8C4FF7F010000003C
:04419800D501000845
:04419C00B101000865
:1041A000C600124A00000000C400124A00000000CD
:1041B000C200124A00000000C000124B00000000C4
:1041C00090000C000000000004000000410000000E
:1041D000440000000024F400010000001000000072
:0400000508002B655F
:00000001FF
