:020000040800F2
:1000000000000320AD1500088515000887150008BD
:10001000891500088B1500088D15000800000000E8
:100020000000000000000000000000008F15000824
:1000300091150008000000009315000895150008B0
:10004000FD150008FD150008FD150008FD15000848
:10005000FD150008FD150008FD150008750B0008CA
:10006000FD150008B50B0008FD150008FD1500087A
:10007000FD150008FD150008FD150008FD15000818
:10008000FD150008FD150008FD150008FD15000808
:10009000FD150008FD150008FD150008CD0B000832
:1000A000FD150008BD0A0008FD150008FD15000833
:1000B000FD150008FD150008FD150008FD150008D8
:1000C000FD150008FD150008FD150008FD150008C8
:1000D000FD150008FD150008FD150008FD150008B8
:1000E000FD150008FD150008FD150008FD150008A8
:1000F000FD150008FD150008FD150008FD15000898
:10010000FD150008FD150008FD150008FD15000887
:10011000FD150008FD150008FD150008FD15000877
:10012000FD150008FD150008FD150008FD15000867
:10013000FD150008FD150008FD150008FD15000857
:10014000FD150008FD150008FD150008FD15000847
:10015000FD150008FD150008FD150008FD15000837
:10016000FD150008FD150008FD150008FD15000827
:10017000FD150008FD150008FD150008FD15000817
:10018000FD150008FD150008FD150008FD15000807
:10019000FD150008FD150008FD150008FD150008F7
:0C01A000FD150008FD150008FD15000805
:1001AC0010B5054C237833B9044B13B10448AFF3A5
:1001BC0000800123237010BD0C0000200000000003
:1001CC00BC20000808B5034B1BB103490348AFF32F
:1001DC00008008BD0000000010000020BC200008BA
:1001EC0053B94AB9002908BF00281CBF4FF0FF3192
:1001FC004FF0FF3000F088B9ADF1080C6DE904CE7A
:10020C0000F006F8DDF804E0DDE9022304B07047E5
:10021C002DE9F047089D8E4604468846002B4AD1AE
:10022C008A42174662D9B2FA82F64EB1C6F1200361
:10023C0001FA06F820FA03F3B74043EA0808B44081
:10024C004FEA174E1FFA87FCB8FBFEF1230C0EFB8E
:10025C00118843EA084301FB0CF29A4209D9FB18B6
:10026C0001F1FF3080F0EA809A4240F2E7800239D7
:10027C003B449A1AA3B2B2FBFEF00EFB102243EAE7
:10028C00024300FB0CFC9C4509D9FB1800F1FF3222
:10029C0080F0D6809C4540F2D3803B44023840EA43
:1002AC000140A3EB0C0300211DB1F3400022C5E972
:1002BC000032BDE8F0878B4205D90DB1C5E90001CC
:1002CC0000210846F5E7B3FA83F1002946D17345BE
:1002DC0002D3824200F20581841A6EEB03020120E4
:1002EC009046002DE5D0C5E90048E2E7002A00F071
:1002FC009080B2FA82F6002E40F0A4808A1A030C89
:10030C004FEA174E80B2BCB20121B2FBFEFC0EFBD1
:10031C001C2243EA024304FB0CF29A4207D9FB1855
:10032C000CF1FF3802D29A4200F2E080C4469B1ACC
:10033C00B3FBFEF20EFB123340EA034302FB04F460
:10034C009C4207D9FB1802F1FF3002D29C4200F20A
:10035C00CA8002461B1B42EA0C40A5E7C1F12006ED
:10036C008B4022FA06F71F430EFA01F420FA06F32B
:10037C002EFA06FE4FEA1749234300FA01F81FFA3A
:10038C0087FCBEFBF9F01C0C09FB10EE44EA0E4492
:10039C0000FB0CFEA64502FA01F209D93C1900F14A
:1003AC00FF3A80F09C80A64540F2998002383C448C
:1003BC00A4EB0E041FFA83FEB4FBF9F309FB134400
:1003CC004EEA044403FB0CFCA44508D93C1903F188
:1003DC00FF3E80F08280A4457FD9023B3C4443EA37
:1003EC000040A4EB0C04A0FB02EC64457346E14610
:1003FC0062D35FD05DB1B8EB030264EB090404FA7D
:10040C0006F622FA01F31E43CC40C5E90064002134
:10041C004FE7B1FBF2FC010C41EA0E4180B240EA1D
:10042C0001423B4638463C46B846BE462026B1FB08
:10043C00F7F1A2EB080241EA0C4166E7014618E726
:10044C0010462CE7C6F120022EFA02F3B740B14059
:10045C0020FA02F24FEA174E0A43B3FBFEF8BCB285
:10046C000EFB1833110C41EA034108FB04F9B040B0
:10047C0089454FEA104380B23ED9791808F1FF3C08
:10048C0001D289451FD8A1EB0901B1FBFEF909FB8B
:10049C0004F80EFB191192B242EA0142424529D2EC
:1004AC00BA1809F1FF31C4D24245C2D2A9F10201F6
:1004BC003A44BEE7F0459DD2BEEB02036CEB070C51
:1004CC000138E14696E7A7EB09094944A8F1020C6B
:1004DC00B1FBFEF909FB04F8DBE773467FE75046F6
:1004EC0066E70846FDE63B44023A33E7ACF1020C02
:1004FC003B441CE749469CE7A1EB0901C446B1FB10
:10050C00FEF909FB04F8C4E7704700BF3F4B1A68BB
:10051C0022F47C421A601A6842F428421A60DA68A3
:10052C0022F47C42DA60DA6842F4A842DA605A6853
:10053C0022F0E0021204120C5A609A6822F47C42F7
:10054C009A609A6842F47C429A601A6A42F0AA4213
:10055C0042F4A0021A622E4A116841F480711160B3
:10056C00D16821F44071D160516821F010015160C3
:10057C00916841F480719160516941F010015161B1
:10058C001A6842F010021A60DA6822F03002DA605F
:10059C005A685A609A6842F010029A605A6942F09E
:1005AC0004025A61A3F5F633DA6A0022DA629A6A17
:1005BC006FF30F029A6203F58E331A6822F0380239
:1005CC001A601A6842F020021A601A6842F001029E
:1005DC001A601A6842F002021A601A6842F00402A9
:1005EC001A601A6842F440721A601A6822F080028B
:1005FC001A601A6842F400621A601A6822F4044203
:10060C001A601A6842F040021A60704700000240FB
:10061C00001802403C4B1A6822F07C521A601A688F
:10062C0042F028521A60DA6822F07C52DA60DA68FA
:10063C0042F0A852DA601A6822F47C021A601A6836
:10064C0042F4A8021A60314AD16A0021D162916A3F
:10065C006FF30F019162D16A41F49C4141F020018A
:10066C00D162916A41F0FB019162596941F40071C8
:10067C005961116841F001011160596921F400714F
:10068C005961116821F0010111605A6822F4E042AD
:10069C001204120C5A609A6822F07C529A609A6882
:1006AC0042F028529A605A6942F400625A615A6ABE
:1006BC00C2F313025A625A6A42F0AA6242F4A022AE
:1006CC005A62A3F544431A6822F038021A601A6879
:1006DC0042F018021A601A6822F003021A601A68B3
:1006EC0042F004021A601A6842F440721A601A68E6
:1006FC0022F080021A601A6822F404421A601A6806
:10070C0042F040021A60704700180240001000408E
:10071C000C4B0D491A6C22F4810222F031021A643E
:10072C001A6C0A431A641A6A0A431A6200BF00BFA1
:10073C001A6A22F031025204520C1A6200BF00BF36
:10074C00704700BF00380240318040000C4B0D4A0E
:10075C00596C0A405A64596C0B4A0A435A64596AD8
:10076C000A4A0A435A6200BF00BF5A6A22F4E042A6
:10077C0022F020021204120C5A6200BF00BF704714
:10078C0000380240DE8FDFFF217020002070240033
:10079C00084B1A6B22F07F021A631A6B42F07F022D
:1007AC001A6300BF00BF1A6922F07D021204120CFA
:1007BC001A61704700380240F0B59DF81C609DF836
:1007CC0014509DF81840027043708570C470067107
:1007DC000F6881607000824027EA02070F600F6883
:1007EC003A430A604A68B34022EA03024A604A6804
:1007FC0013434B608A6805FA00F322EA03028A600D
:10080C008A6813438B60CA6804FA00F322EA030275
:10081C00CA60CA681343CB60F0BDF0B504460F46FE
:10082C0016460FCC89B001AD0FC594E8070085E8DA
:10083C000700039A0499536923EA0103536147F0B3
:10084C008001079B01A89847079B314601A8984750
:10085C00039A049953690B43536109B0F0BD0A46DE
:10086C001221FFF7DABF70B504460E460FCC88B0E4
:10087C0001AD0FC594E8070085E80700039A0499B9
:10088C00536923EA0103536106F07F01079B01A81A
:10089C009847079BFF2101A89847039A049953692D
:1008AC00C0B20B43536108B070BD38B50D46012181
:1008BC000446FFF7D8FF00F0F8022A432046012136
:1008CC00BDE83840FFF7A9BF73B50446CDE9002356
:1008DC000121234A9DF818609DF82050002300F058
:1008EC00DBFD204B6362204B2362204BA362204B29
:1008FC00E362204B2363204B636320460021FFF708
:10090C00D4FF204680220121FFF787FFEA0042EA4C
:10091C008612204602F0F8021D21FFF77EFF2046CA
:10092C0094221E21FFF779FF204600220E21FFF7AB
:10093C0074FF204600220F21FFF76FFF2046202274
:10094C002221FFF76AFF204620222321FFF765FFB3
:10095C000121204602B0BDE87040FFF7A6BF00BFE2
:10096C000054014089090008C50900081D0A000847
:10097C008F090008710A00086B0800080121FFF7B5
:10098C0094BF10B501210446FFF78FFF20460022CB
:10099C004021FFF742FF204640221221FFF73DFF86
:1009AC0020460D210022FFF738FF05212177204634
:1009BC00BDE81040FFF779BF10B509210446FFF7D9
:1009CC0052FF60F07002D2B220460921FFF725FFDA
:1009DC0009212046FFF747FF5A212046FFF743FF26
:1009EC0040F00702D2B220465A21FFF716FF0B2126
:1009FC002046FFF738FF40F01F020B212046D2B2F1
:100A0C00FFF70BFF20460B21BDE81040FFF72BBF73
:100A1C0070B504460D460121FFF747FF0121204622
:100A2C00FFF7CAFF402211462046FFF7F6FE0822C8
:100A3C0012212046FFF7F1FE00220D212046FFF780
:100A4C00ECFE6E1E1F3516F8012F00212046FFF715
:100A5C00E4FEAE42F7D1032121772046BDE8704079
:100A6C00FFF723BFF8B5044615460F464022122166
:100A7C00FFF7D3FE13212046FFF7F5FE10210646A3
:100A8C002046FFF7F0FEAE4202460FD80D2120465D
:100A9C00FFF7C3FE0025AE4201DC0120F8BD0021AA
:100AAC002046FFF7E0FE78550135F4E70020F5E726
:100ABC00224A13780133DBB2042B137005D8204A79
:100ACC00136923F00103136170471E4B99684B693E
:100ADC0023F480534B611C4B99684B6923F40063DE
:100AEC004B611A4B99684B6923F020034B61184BEF
:100AFC0099684B6923F040034B61164B99684B691D
:100B0C0023F480534B61144B99684B6923F4806335
:100B1C004B61124B99684B6943F480434B61104B0A
:100B2C0099684B6943F400534B610E490B7803F001
:100B3C0001030B7000231370C1E700BF14040020E5
:100B4C00000001400003002018030020C801002011
:100B5C00B001002048030020600300209003002017
:100B6C00A80300201504002008B5C82000F060FC84
:100B7C000A4B5A69920710D55A6922F002025A613F
:100B8C00074A9268126912F4804F5A6922F00202E5
:100B9C005A611EBF034B01221A7008BD003C014074
:100BAC00F000002013040020044B5A69120742BFC6
:100BBC005A6922F008025A61704700BF003C01409C
:100BCC00084A536923F4F8735361074B01221A70D6
:100BDC00064B4FF40002C3F88020BFF34F8FBFF3D6
:100BEC006F8F7047003C01401104002000E100E0D1
:100BFC003349002370B54B7001238B700223CB70EB
:100C0C000323304C0B7104234B7105238B71237818
:100C1C0013B1012B2AD070BD2B4D2C48AA682B4E3A
:100C2C0006230B70536943F480635361FFF7F0FEA6
:100C3C0012213046FFF717FE0207F9D52348082288
:100C4C001221FFF7EAFD224B2048002205211A70E1
:100C5C00FFF72BFE1F4B4FF400021A60AA68536972
:100C6C0023F48063536101232370D4E7164D174896
:100C7C00AA68164E07230B70536943F480635361C3
:100C8C00FFF7C6FE12213046FFF7EDFD0307F9D53D
:100C9C0008220E481221FFF7C0FD0D4B0B48002611
:100CAC0005211E70FFF701FE0A4B4FF400021A607B
:100CBC00AA682670536923F480635361ABE700BFC5
:100CCC00280000201004002048000020D803002039
:100CDC001204002000E100E072B600BFFDE7000046
:100CEC0010B594B01422002109A801F0B5F9142212
:100CFC00002103A801F0B0F90023204A0193116CE4
:100D0C0041F080511164126C02F080520192019AF0
:100D1C001B4A0293116841F440411160126802248D
:100D2C0002F440420820CDE90E430292B423CDE9EF
:100D3C001003029A089401211022042308A8CDE97B
:100D4C000B121294139300F001FF08B1FFF7C4FFCC
:100D5C0000F0C2FE0028F9D10F23CDE90334059031
:100D6C004FF4A0524FF48053052103A8CDE906237C
:100D7C0001F0C8F80028E9D114B010BD00380240C9
:100D8C00007000402DE9804889B000F057FCFFF757
:100D9C00A7FFFFF7BDFCFFF7D9FCFFF7F9FC6420B8
:100DAC0000F047FB1F4B204C00220492196B41F0C2
:100DBC0004011963196B01F0040104910499059263
:100DCC00196B41F080011963196B01F080010591D9
:100DDC0005990692196B41F001011963196B01F029
:100DEC000101069106990792196B41F002011963F2
:100DFC001B6B0E4903F002030793079B0C4B204619
:100E0C00C4E900134FF48043C4E90222C4E904325C
:100E1C00C4E90622226200F079FD014650B1FFF7C9
:100E2C005BFF00BF0038024018040020005800404F
:100E3C00A0860100204600F011FE01460028EED1EC
:100E4C00204600F02AFE05460028E8D101244FF088
:100E5C000C08FFF75BFB0B27FFF7DCFBCDE9014828
:100E6C002246C249C24800942B46FFF7A5FCCDE9A7
:100E7C0001472246BD49BF4800942B46FFF79CFC16
:100E8C000A23CDE901432246B849BB4800942B46BE
:100E9C00FFF792FC0923CDE901432246B349B74839
:100EAC0000942B46FFF788FC0823CDE9014322462A
:100EBC00AE49B34800942B46FFF77EFC092302266B
:100ECC00CDE901432246AF49AF4800942B46FFF7CA
:100EDC0073FC2246CDE90046AC49AD4802952B4641
:100EEC00FFF76AFC2246CDE90164A849A9480094A1
:100EFC002B46FFF761FC07232246CDE90163A64987
:100F0C00A64800942B46FFF757FC082322464FF0C7
:100F1C00050ACDE90163A049A14800942B46FFF7CF
:100F2C004BFC2246CDE9016A98499E4800942B4619
:100F3C00FFF742FC06234FF00F0B2246CDE901636D
:100F4C009249994800942B46FFF736FC4FF00E0956
:100F5C00CDE9016B9549964800942B462A46FFF73C
:100F6C002BFCCDE901699149924800942B462A4605
:100F7C00FFF722FC0D23CDE901638C498E480094C8
:100F8C002B462A46FFF718FCCDE9016887498B48A8
:100F9C0000942B462A46FFF70FFCCDE901678349E5
:100FAC00874800942B462A46FFF706FC854986485D
:100FBC0000942B462A46CDE90165FFF7FDFBCDE9F0
:100FCC00016A7049814800942B462A46FFF7F4FBCE
:100FDC000423CDE901636B497D4800942B462A46D6
:100FEC00FFF7EAFB2246CDE9016B7A497A48009477
:100FFC002B46FFF7E1FBDFF810A276497748009407
:10100C002246CDE901692B46FFF7D6FB0323224686
:10101C005046CDE901635D4900942B46FFF7CCFBAC
:10102C0022466F48594900942B46CDE90166FFF7DB
:10103C00C3FBDAF808206A4853696249DFF8CCA18F
:10104C0043F00803536182686648536943F0040314
:10105C0053610D232246CDE9016300942B46FFF723
:10106C00ABFB2246CDE9016956495F4800942B46FB
:10107C00FFF7A2FBCDE9016752495C4800942B466F
:10108C002A46FFF799FB0A232246CDE901634D4915
:10109C00574800942B46FFF78FFB2246CDE9016899
:1010AC004849544800942B46FFF786FBCDE9016B69
:1010BC004449DFF85CB1504800942B462A46FFF7B0
:1010CC007BFB2246CDE90167424900942B465046F2
:1010DC00FFF772FB2246CDE901683E4900942B468E
:1010EC005846FFF769FB0823DFF828813949434844
:1010FC0000942246CDE901632B46FFF75DFB0923E3
:10110C00DFF81491334900942246CDE9016340463F
:10111C002B46FFF751FB0A232246CDE901632D49EB
:10112C0000942B464846FFF747FB0D23344F2949C3
:10113C0034480094CDE901632A462B46FFF73CFB6B
:10114C000A232246CDE90153104900942B46384618
:10115C00FFF732FBBA6827495369254843F480638B
:10116C005361214B9A68536958E000BF000002405C
:10117C00980100208001002068010020500100200F
:10118C003801002000080240200100200018024015
:10119C00280200201002002000100240F80100205C
:1011AC00E0010020C8010020B00100200014024022
:1011BC0008010020F0000020D8000020C000002012
:1011CC00A8000020000402409000002078000020BD
:1011DC0060000020000C02408802002070020020F9
:1011EC0040020020A8030020900300207803002078
:1011FC00600300204803002030030020E802002098
:10120C0048000020A00200205802002018030020F3
:10121C0000030020D0020020B802002023F48043F9
:10122C005361724A9268536923F4005353618A687C
:10123C006F49536923F48053536182686D48536935
:10124C0023F480635361DBF80820536923F4805343
:10125C005361DAF80820536923F400635361D9F819
:10126C000820536923F480635361D8F8082053692C
:10127C004FF0070C23F400735361CDE9015C00942B
:10128C002B462A46FFF798FA5B4B5C49DA685C48B8
:10129C0022F44052DA60DA6842F44052DA60D3F851
:1012AC000C2422F08002C3F80C24D3F80C2442F056
:1012BC008002C3F80C24D3F8082422F08002C3F86F
:1012CC000824D3F8082442F08002C3F80824D3F889
:1012DC00002422F08002C3F80024D3F8002442F04A
:1012EC008002C3F8002402940924464A4FF4006398
:1012FC00CDE90064FFF7E8FA434C4148FFF741FBA6
:10130C003F484021FFF7ABFAA268404C5369404973
:10131C00404823F480535361A2683F4C536923F433
:10132C0000635361A2683D4C536923F4806353619D
:10133C00A2683B4C536923F400735361A268394C87
:10134C00536923F480735361A268536923F40073C7
:10135C005361354B9A68536923F480435361234A94
:10136C009268536923F4005353618A68536923F4D8
:10137C00805353618268536923F480635361DBF8B3
:10138C000820536923F480535361DAF80820536919
:10139C0023F400635361D9F80820536923F4806364
:1013AC005361D8F80820536923F4007353611F4B21
:1013BC001D70BB685A6942F480625A615A6922F402
:1013CC0080625A615A6942F480625A615A6922F405
:1013DC0080625A615A6942F480625A615A6922F4F5
:1013EC0080625A61FFF704FCFCE700BFA8030020F1
:1013FC00000C0240C003002000380140D42000083B
:10140C00D803002000180240980100208001002021
:10141C0048030020600300206801002050010020D8
:10142C00380100202001002090030020150400202A
:10143C007047704713B500230446ADF806300369B6
:10144C00984763690DF106012046984762689368D6
:10145C001B06FCD4BDF8060080B202B010BD436878
:10146C009A689207FCD5C9B2D960704743689A68EC
:10147C009207FCD5D960704743689A68D207FCD5AF
:10148C00DB68DBB20B80704743689A68D207FCD5E7
:10149C00DB689BB20B807047002B4260084B009AB4
:1014AC00017082600749019AC260074A08BF1A4658
:1014BC00064B08BF0B46C0E90423054B83617047FC
:1014CC006B140008851400087914000895140008A2
:1014DC004114000882B00C4B002100915A6C42F46C
:1014EC0080425A645A6C02F480420092009A019134
:1014FC001A6C42F080521A641B6C03F080530193F7
:10150C00019B02B0704700BF0038024030B5044662
:10151C0089B01422002103A800F09EFD2268134B11
:10152C009A4220D1124C134800250195236B43F0AD
:10153C0020032363236B03F020030193019B1222EE
:10154C000323CDE90332069303A90423079300F088
:10155C00F9F80295236C43F480032364236C03F4A1
:10156C0080030293029B09B030BD00BF00580040BD
:10157C000038024000140240FEE7FEE7FEE7FEE7FB
:10158C00FEE770477047704700F072B8034AD2F814
:10159C00883043F47003C2F88830704700ED00E0E7
:1015AC00DFF834D0FFF7F2FF0C480D490D4A002349
:1015BC0002E0D458C4500433C4188C42F9D30A4AFC
:1015CC000A4C002301E013600432A242FBD300F06A
:1015DC004BFDFFF7D7FB70470000032000000020F5
:1015EC000C000020082100080C00002070040020D2
:1015FC00FEE7000038B50E4B1A784FF47A73B3FB44
:10160C00F2F30C4A05461068B0FBF3F000F086F8D4
:10161C00044658B90F2D09D8024629464FF0FF3021
:10162C0000F04AF8044B20461D6038BD0120FCE751
:10163C0004000020000000200800002008B50B4B1F
:10164C001A6842F400721A601A6842F480621A60D6
:10165C001A6842F480721A60032000F01BF80F2005
:10166C00FFF7C8FFFFF736FF002008BD003C024023
:10167C00034A044B11681B780B441360704700BF7E
:10168C006C04002004000020014B1868704700BF58
:10169C006C0400200749CA6822F4E06203021204B9
:1016AC0003F4E063120C134343F0BF6343F40033C1
:1016BC00CB60704700ED00E0164B30B5DC68C4F32E
:1016CC000224C4F10703251D042B28BF0423062D77
:1016DC004FF0FF358CBF033C002405FA03F321EADD
:1016EC000303A54022EA0502A340002843EA0203B3
:1016FC00ACBF00F16040084A4FEA0313B8BF00F0DA
:10170C000F00DBB2AABF00F56140135480F8003320
:10171C0030BD00BF00ED00E014ED00E00138B0F189
:10172C00807F0BD24FF0E023054A5861F02182F8FC
:10173C0023100020072298611A617047012070471E
:10174C0000ED00E02DE9F74FDFF8BC916C4A002367
:10175C000D6801249C4004EA0506AC4340F0B780B8
:10176C004D68032705F003044FEA430807FA08FC09
:10177C00671E012F6FEA0C0C34D8876807EA0C0E31
:10178C00CF6807FA08F747EA0E078760476827EA29
:10179C00060EC5F300179F4047EA0E074760C7685F
:1017AC0007EA0C0E8F6807FA08F747EA0E07022CB7
:1017BC00C76019D14FEAD30A00EB8A0A03F0070B72
:1017CC00DAF820704FEA8B0B4FF00F0E0EFA0BFE6F
:1017DC0027EA0E0E0F6907FA0BF747EA0E07CAF84D
:1017EC00207001E0032CDAD1076804FA08F407EA48
:1017FC000C073C4315F4403F046068D0002401946E
:10180C00D9F8444044F48044C9F84440D9F84440E1
:10181C0023F0030707F1804704F4804407F59C3755
:10182C00019403F0030C019CD7F808E04FEA8C0CF0
:10183C000F2404FA0CF42EEA040E324CA0424DD0C4
:10184C0004F58064A0424BD004F58064A04249D0DA
:10185C0004F58064A04247D004F58064A04245D0D2
:10186C0004F58064A04243D004F58064A04241D0CA
:10187C0004F58064A0423FD004F58064A0423DD0C2
:10188C0004F58064A04214BF0A24092404FA0CF461
:10189C0044EA0E04BC609468F74315F4801F0CBF37
:1018AC003C4034439460D46815F4001F0CBF3C409A
:1018BC003443D460546815F4003F0CBF3C403443AF
:1018CC0054601468ED0354BF3C403443146001333E
:1018DC00102B7FF43DAF03B0BDE8F08F0024D5E7AB
:1018EC000124D3E70224D1E70324CFE70424CDE776
:1018FC000524CBE70624C9E70724C7E70824C5E776
:10190C00003C0140000002400038024070B5044623
:10191C0008B9012070BD90F83D3003F0FF021BB9EF
:10192C0080F83C20FFF7F2FD242384F83D30236837
:10193C001A6822F001021A601A6842F400421A6016
:10194C001A6822F400421A6000F076FB3F4B65687F
:10195C009D4294BF3E4B3F4B98428CBF00230123CA
:10196C00002BD6D12268394E51683B4BB0FBF3F3B8
:10197C0021F03F011943B542516088BF4FF4967670
:10198C00116A88BF734321F03F0184BF4FF47A760C
:10199C00B3FBF6F301330B431362D169431E2B489F
:1019AC0021F44F41854221F0FF0132D86D0040F601
:1019BC00FC70B3FBF5F30133034242D0C3F30B03CA
:1019CC001943D161D4E907301168034321F0C001F8
:1019DC000B4313609168D4E9030321F403410343DF
:1019EC0021F0FF010B439360D4E90530D168034328
:1019FC0021F0FF010B43D360136843F00103136024
:101A0C0000202023206484F83D30206384F83E00BD
:101A1C0080E7A06850B905EB4505B3FBF5F301333E
:101A2C00C3F30B037BB143F40043C9E719206843AC
:101A3C00B3FBF0F30133C3F30B0323B143F4404383
:101A4C00BEE70423BCE70123BAE700BFA086010070
:101A5C007F841E00FF083D0040420F0010B590F837
:101A6C003D30202BDCB216D1242380F83D300368A6
:101A7C001A6822F001021A605A6A22F010025A62A5
:101A8C005A6A114359621A6842F001021A6080F8CE
:101A9C003D40002010BD0220FCE730B590F83D30F1
:101AAC00202BDCB216D10268242380F83D30136859
:101ABC0023F001031360556A4FF6F0732B400B4370
:101ACC009BB25362136843F00103136080F83D40EE
:101ADC00002030BD0220FCE737B500230193184BE2
:101AEC00184D1A6C42F080521A641B6C03F0805330
:101AFC000193019B144B01221A64FFF7C5FD0446A8
:101B0C006B68DA030BD5104B0E4D01225A64FFF7AC
:101B1C00BBFD04466B689B030AD5002006E0FFF76B
:101B2C00B3FD001BB0F57A7FEAD9032003B030BDBA
:101B3C00FFF7AAFD001BB0F57A7FEBD9F5E700BFE4
:101B4C00003802400070004000000E422DE9F341C5
:101B5C00044640B30368DE0710D423689D075BD4AA
:101B6C002368190700F19D8023685A0700F1BD8096
:101B7C00A369002B40F0248100202CE08D4B9A6847
:101B8C0002F00C02042A07D09A6802F00C02082A10
:101B9C000BD15B68590208D5864B1B689A03DCD5C0
:101BAC006368002BD9D1012015E06368814DB3F532
:101BBC00803F13D12B6843F480332B60FFF764FD17
:101BCC007C4E054633689B03C7D4FFF75DFD401B75
:101BDC006428F7D9032002B0BDE8F081B3F5A02F3B
:101BEC0004D12B6843F480232B60E3E72A6822F4AA
:101BFC0080322A602A6822F480222A60002BDDD1F0
:101C0C00FFF742FD06462B689F03A6D5FFF73CFD68
:101C1C00801B6428F7D9DDE7664B9A6812F00C0F2D
:101C2C0007D09A6802F00C02082A11D15B685D0299
:101C3C000ED4604A1368990702D5E368012BB2D120
:101C4C001368216923F0F80343EAC103136087E7A3
:101C5C00E268594BB2B101221A60FFF715FD554DE0
:101C6C0006462B689B0707D52B68226923F0F803DF
:101C7C0043EAC2032B6073E7FFF706FD801B0228C3
:101C8C00EFD9A7E71A60FFF7FFFC4A4E0546336809
:101C9C009F077FF565AFFFF7F7FC401B0228F6D9CD
:101CAC0098E76269444B82B10122C3F8802EFFF79A
:101CBC00EBFC404E0546736F9B073FF555AFFFF7A6
:101CCC00E3FC401B0228F6D984E7C3F8802EFFF70B
:101CDC00DBFC384E0546736F9F077FF545AFFFF76A
:101CEC00D3FC401B0228F6D974E7324B1A6C12F065
:101CFC00805228D101921A6C42F080521A641B6CEB
:101D0C0003F080530193019B01272C4D2B68D805C0
:101D1C001BD5A368274D012B27D12B6F43F0010353
:101D2C002B67FFF7B1FC234E054641F28838336F21
:101D3C009A0739D5002F3FF41BAF1E4A136C23F0C2
:101D4C008053136414E70027DFE72B6843F4807398
:101D5C002B60FFF799FC06462B68D905D9D4FFF701
:101D6C0093FC801B0228F7D934E7052B04D12B6F89
:101D7C0043F004032B67D0E72A6F22F001022A6795
:101D8C002A6F22F004022A67002BCAD1FFF77CFCD1
:101D9C0041F2883806462B6F9B07CBD5FFF774FCB6
:101DAC00801B4045F7D915E7FFF76EFC401B4045FB
:101DBC00BDD90FE7003802400000474200700040D8
:101DCC00374DAA6802F00C02082A3ED0022B354B84
:101DDC004FF000021A662BD1FFF756FC06462B6813
:101DEC0099011FD4D4E907321343626A43EA821380
:101DFC00E26A43EA0263A26A5208013A43EA0243E6
:101E0C006B60284B264D01221A66FFF73DFC0446F9
:101E1C002B689A013FF5B0AEFFF736FC001B022889
:101E2C00F6D9D7E6FFF730FC801B0228D7D9D1E6CC
:101E3C00FFF72AFC04462B689B017FF59DAEFFF74C
:101E4C0023FC001B0228F6D9C4E6012B3FF4ABAEF1
:101E5C006B68E26903F4800191427FF4A4AE216ABD
:101E6C0003F03F028A427FF49EAE616A47F6C0726D
:101E7C001A40B2EB811F7FF496AEA26A520803F4AB
:101E8C004031013AB1EB024F7FF48DAEE26A03F0C0
:101E9C007063B3EB026F14BF012000209BE600BF00
:101EAC000038024000004742134908B58B6803F024
:101EBC000C03042B1CD0082B1CD14A684B684968B6
:101ECC0013F4800314BF0D480D48C1F3881118BFDB
:101EDC00002302F03F02A1FB0001FEF781F9064B43
:101EEC005B68C3F3014301335B00B0FBF3F008BD47
:101EFC000248FCE70248FAE70038024040787D01CE
:101F0C000024F4002DE9F0410D46044610B90120DF
:101F1C00BDE8F081434B1A6802F00F028A4228D3C5
:101F2C0021688F072DD4C80740D43E4B1A6802F0A5
:101F3C000F02AA4265D8226851076BD4130707D544
:101F4C00394A2169936823F4604343EAC1039360DF
:101F5C00FFF7AAFF344B354A9B68C3F30313D35CDA
:101F6C00D840334B1860334B1868FFF743FB002005
:101F7C00CEE7CAB21A701B6803F00F038B42C6D1AE
:101F8C00CEE7294B11F0040F1EBF9A6842F4E052C1
:101F9C009A600E0742BF9A6842F460429A609A684F
:101FAC00A06822F0F00202439A60BCE762681E4B04
:101FBC00012A1CD11B6813F4003FA8D01A4EB36839
:101FCC0023F003031343B360FFF75EFB41F2883841
:101FDC000746B368626803F00C03B3EB820FA4D01E
:101FEC00FFF752FBC01B4045F3D9032090E7911E2D
:101FFC0001291B6802D813F0007FDEE713F0020FF3
:10200C00DBE7EAB21A701B6803F00F03AB427FF4F4
:10201C007EAF90E70449E0688B6823F4E0530343F8
:10202C008B608BE7003C024000380240E520000842
:10203C000000002008000020044B054A9B68C3F3F5
:10204C008223D35C034A1068D840704700380240A2
:10205C00DD2000080000002002440346934200D11A
:10206C00704703F8011BF9E770B50D4D0D4C641B5F
:10207C00A4100026A64209D10B4D0C4C00F018F808
:10208C00641BA4100026A64205D170BD55F8043B74
:10209C0098470136EEE755F8043B98470136F2E7CE
:1020AC00002100080021000800210008042100087C
:1020BC00F8B500BFF8BC08BC9E467047F8B500BF29
:0820CC00F8BC08BC9E467047F9
:1020D4004753455F4C4F524100000000000102038A
:1020E40004000000000000000001020304060708C9
:0420F40009000000DF
:0820F80024E1FF7F010000005C
:04210000D101000801
:04210400AD01000821
:0C2108000024F4000100000010000000A2
:04000005080015AD2D
:00000001FF
